{
  "address": "0xb428C8C42CB87eE70aA7C30bD9D80a619B4C933a",
  "abi": [
    {
      "inputs": [
        {
          "internalType": "contract IUniswapV2Router02",
          "name": "routerV2",
          "type": "address"
        },
        {
          "internalType": "address",
          "name": "WETH",
          "type": "address"
        }
      ],
      "stateMutability": "nonpayable",
      "type": "constructor"
    },
    {
      "anonymous": false,
      "inputs": [
        {
          "indexed": true,
          "internalType": "contract IResource",
          "name": "resource",
          "type": "address"
        },
        {
          "indexed": true,
          "internalType": "address",
          "name": "buyer",
          "type": "address"
        },
        {
          "indexed": false,
          "internalType": "uint256",
          "name": "amount",
          "type": "uint256"
        },
        {
          "indexed": false,
          "internalType": "uint256",
          "name": "value",
          "type": "uint256"
        }
      ],
      "name": "Bought",
      "type": "event"
    },
    {
      "anonymous": false,
      "inputs": [
        {
          "indexed": true,
          "internalType": "contract IResource",
          "name": "resource",
          "type": "address"
        },
        {
          "indexed": true,
          "internalType": "address",
          "name": "buyer",
          "type": "address"
        },
        {
          "indexed": false,
          "internalType": "uint256",
          "name": "amount",
          "type": "uint256"
        }
      ],
      "name": "SpendRollUp",
      "type": "event"
    },
    {
      "inputs": [],
      "name": "WETH",
      "outputs": [
        {
          "internalType": "address",
          "name": "",
          "type": "address"
        }
      ],
      "stateMutability": "view",
      "type": "function"
    },
    {
      "inputs": [
        {
          "internalType": "contract IResource",
          "name": "resource",
          "type": "address"
        },
        {
          "internalType": "uint256",
          "name": "amountOutMin",
          "type": "uint256"
        },
        {
          "internalType": "bytes",
          "name": "data",
          "type": "bytes"
        }
      ],
      "name": "buyETHValuatedResourceByExactETH",
      "outputs": [
        {
          "internalType": "uint256",
          "name": "amount",
          "type": "uint256"
        }
      ],
      "stateMutability": "payable",
      "type": "function"
    },
    {
      "inputs": [
        {
          "internalType": "contract IResource",
          "name": "resource",
          "type": "address"
        },
        {
          "internalType": "address[]",
          "name": "prePath",
          "type": "address[]"
        },
        {
          "internalType": "uint256",
          "name": "valueIn",
          "type": "uint256"
        },
        {
          "internalType": "uint256",
          "name": "amountOutMin",
          "type": "uint256"
        },
        {
          "internalType": "uint256",
          "name": "deadline",
          "type": "uint256"
        },
        {
          "internalType": "bytes",
          "name": "data",
          "type": "bytes"
        }
      ],
      "name": "buyETHValuatedResourceByExactToken",
      "outputs": [
        {
          "internalType": "uint256",
          "name": "amount",
          "type": "uint256"
        }
      ],
      "stateMutability": "nonpayable",
      "type": "function"
    },
    {
      "inputs": [
        {
          "internalType": "contract IResource",
          "name": "resource",
          "type": "address"
        },
        {
          "internalType": "uint256",
          "name": "amountOut",
          "type": "uint256"
        },
        {
          "internalType": "bytes",
          "name": "data",
          "type": "bytes"
        }
      ],
      "name": "buyExactETHValuatedResourceByETH",
      "outputs": [
        {
          "internalType": "uint256",
          "name": "value",
          "type": "uint256"
        }
      ],
      "stateMutability": "payable",
      "type": "function"
    },
    {
      "inputs": [
        {
          "internalType": "contract IResource",
          "name": "resource",
          "type": "address"
        },
        {
          "internalType": "address[]",
          "name": "prePath",
          "type": "address[]"
        },
        {
          "internalType": "uint256",
          "name": "amountOut",
          "type": "uint256"
        },
        {
          "internalType": "uint256",
          "name": "valueInMax",
          "type": "uint256"
        },
        {
          "internalType": "uint256",
          "name": "deadline",
          "type": "uint256"
        },
        {
          "internalType": "bytes",
          "name": "data",
          "type": "bytes"
        }
      ],
      "name": "buyExactETHValuatedResourceByToken",
      "outputs": [
        {
          "internalType": "uint256",
          "name": "value",
          "type": "uint256"
        }
      ],
      "stateMutability": "nonpayable",
      "type": "function"
    },
    {
      "inputs": [
        {
          "internalType": "contract IResource",
          "name": "resource",
          "type": "address"
        },
        {
          "internalType": "address[]",
          "name": "prePath",
          "type": "address[]"
        },
        {
          "internalType": "uint256",
          "name": "amountOut",
          "type": "uint256"
        },
        {
          "internalType": "uint256",
          "name": "deadline",
          "type": "uint256"
        },
        {
          "internalType": "bytes",
          "name": "data",
          "type": "bytes"
        }
      ],
      "name": "buyExactTokenValuatedResourceByETH",
      "outputs": [
        {
          "internalType": "uint256",
          "name": "value",
          "type": "uint256"
        }
      ],
      "stateMutability": "payable",
      "type": "function"
    },
    {
      "inputs": [
        {
          "internalType": "contract IResource",
          "name": "resource",
          "type": "address"
        },
        {
          "internalType": "address[]",
          "name": "prePath",
          "type": "address[]"
        },
        {
          "internalType": "uint256",
          "name": "amountOut",
          "type": "uint256"
        },
        {
          "internalType": "uint256",
          "name": "valueInMax",
          "type": "uint256"
        },
        {
          "internalType": "uint256",
          "name": "deadline",
          "type": "uint256"
        },
        {
          "internalType": "bytes",
          "name": "data",
          "type": "bytes"
        }
      ],
      "name": "buyExactTokenValuatedResourceByOtherToken",
      "outputs": [
        {
          "internalType": "uint256",
          "name": "value",
          "type": "uint256"
        }
      ],
      "stateMutability": "nonpayable",
      "type": "function"
    },
    {
      "inputs": [
        {
          "internalType": "contract IResource",
          "name": "resource",
          "type": "address"
        },
        {
          "internalType": "uint256",
          "name": "amountOut",
          "type": "uint256"
        },
        {
          "internalType": "uint256",
          "name": "valueInMax",
          "type": "uint256"
        },
        {
          "internalType": "bytes",
          "name": "data",
          "type": "bytes"
        }
      ],
      "name": "buyExactTokenValuatedResourceByToken",
      "outputs": [
        {
          "internalType": "uint256",
          "name": "value",
          "type": "uint256"
        }
      ],
      "stateMutability": "nonpayable",
      "type": "function"
    },
    {
      "inputs": [
        {
          "internalType": "contract IResource",
          "name": "resource",
          "type": "address"
        },
        {
          "internalType": "address[]",
          "name": "prePath",
          "type": "address[]"
        },
        {
          "internalType": "uint256",
          "name": "amountOutMin",
          "type": "uint256"
        },
        {
          "internalType": "uint256",
          "name": "deadline",
          "type": "uint256"
        },
        {
          "internalType": "bytes",
          "name": "data",
          "type": "bytes"
        }
      ],
      "name": "buyTokenValuatedResourceByExactETH",
      "outputs": [
        {
          "internalType": "uint256",
          "name": "amount",
          "type": "uint256"
        }
      ],
      "stateMutability": "payable",
      "type": "function"
    },
    {
      "inputs": [
        {
          "internalType": "contract IResource",
          "name": "resource",
          "type": "address"
        },
        {
          "internalType": "uint256",
          "name": "valueIn",
          "type": "uint256"
        },
        {
          "internalType": "uint256",
          "name": "amountOutMin",
          "type": "uint256"
        },
        {
          "internalType": "bytes",
          "name": "data",
          "type": "bytes"
        }
      ],
      "name": "buyTokenValuatedResourceByExactToken",
      "outputs": [
        {
          "internalType": "uint256",
          "name": "amount",
          "type": "uint256"
        }
      ],
      "stateMutability": "nonpayable",
      "type": "function"
    },
    {
      "inputs": [
        {
          "internalType": "contract IResource",
          "name": "resource",
          "type": "address"
        },
        {
          "internalType": "address[]",
          "name": "prePath",
          "type": "address[]"
        },
        {
          "internalType": "uint256",
          "name": "valueIn",
          "type": "uint256"
        },
        {
          "internalType": "uint256",
          "name": "amountOutMin",
          "type": "uint256"
        },
        {
          "internalType": "uint256",
          "name": "deadline",
          "type": "uint256"
        },
        {
          "internalType": "bytes",
          "name": "data",
          "type": "bytes"
        }
      ],
      "name": "buyTokenValuatedResourceByOtherExactToken",
      "outputs": [
        {
          "internalType": "uint256",
          "name": "amount",
          "type": "uint256"
        }
      ],
      "stateMutability": "nonpayable",
      "type": "function"
    },
    {
      "inputs": [
        {
          "internalType": "contract IResource",
          "name": "resource",
          "type": "address"
        },
        {
          "internalType": "address[]",
          "name": "prePath",
          "type": "address[]"
        },
        {
          "internalType": "uint256",
          "name": "valueIn",
          "type": "uint256"
        }
      ],
      "name": "getAmountOut",
      "outputs": [
        {
          "internalType": "uint256",
          "name": "amountOut",
          "type": "uint256"
        }
      ],
      "stateMutability": "view",
      "type": "function"
    },
    {
      "inputs": [
        {
          "internalType": "contract IResource",
          "name": "resource",
          "type": "address"
        },
        {
          "internalType": "address[]",
          "name": "prePath",
          "type": "address[]"
        },
        {
          "internalType": "uint256",
          "name": "amountOut",
          "type": "uint256"
        }
      ],
      "name": "getValuesIn",
      "outputs": [
        {
          "internalType": "uint256[]",
          "name": "valuesIn",
          "type": "uint256[]"
        }
      ],
      "stateMutability": "view",
      "type": "function"
    },
    {
      "inputs": [
        {
          "internalType": "contract IResource",
          "name": "resource",
          "type": "address"
        },
        {
          "internalType": "address[]",
          "name": "prePath",
          "type": "address[]"
        }
      ],
      "name": "path",
      "outputs": [
        {
          "internalType": "address[]",
          "name": "fullPath",
          "type": "address[]"
        }
      ],
      "stateMutability": "view",
      "type": "function"
    },
    {
      "inputs": [],
      "name": "routerV2",
      "outputs": [
        {
          "internalType": "contract IUniswapV2Router02",
          "name": "",
          "type": "address"
        }
      ],
      "stateMutability": "view",
      "type": "function"
    }
  ],
  "transactionHash": "0xe44c18e6ef36a78504fff816b42c1a6af15f5bc8c9d07acc53b403b3d2e75461",
  "args": [
    "0x7a250d5630B4cF539739dF2C5dAcb4c659F2488D",
    "0xB4FBF271143F4FBf7B91A5ded31805e42b2208d6"
  ],
  "bytecode": "0x60806040523480156200001157600080fd5b5060405162002b4538038062002b45833981016040819052620000349162000066565b600080546001600160a01b039384166001600160a01b03199182161790915560018054929093169116179055620000bd565b6000806040838503121562000079578182fd5b82516200008681620000a4565b60208401519092506200009981620000a4565b809150509250929050565b6001600160a01b0381168114620000ba57600080fd5b50565b612a7880620000cd6000396000f3fe6080604052600436106100e75760003560e01c80635d6395a51161008a578063ad5c464811610059578063ad5c46481461023d578063cb93e6e114610252578063f2cd6f3d1461027f578063f897e1ac1461029f576100e7565b80635d6395a5146101ca57806392ed4262146101dd5780639fcf9f98146101fd578063a21dc4b71461021d576100e7565b8063528c9cc4116100c6578063528c9cc41461014a57806354746399146101775780635692c2081461019757806359d8db1f146101aa576100e7565b80626aef7f146100ec5780633af798da14610115578063502f744614610128575b600080fd5b6100ff6100fa3660046120a2565b6102bf565b60405161010c9190612899565b60405180910390f35b6100ff6101233660046121b8565b6104d2565b34801561013457600080fd5b5061013d6105ad565b60405161010c9190612313565b34801561015657600080fd5b5061016a61016536600461204b565b6105bc565b60405161010c91906123c8565b34801561018357600080fd5b506100ff610192366004612129565b6105e4565b6100ff6101a53660046120a2565b610832565b3480156101b657600080fd5b506100ff6101c536600461220f565b610a22565b6100ff6101d83660046121b8565b610ae9565b3480156101e957600080fd5b506100ff6101f836600461204b565b610c0b565b34801561020957600080fd5b506100ff610218366004612129565b610c27565b34801561022957600080fd5b506100ff61023836600461220f565b610e58565b34801561024957600080fd5b5061013d610f15565b34801561025e57600080fd5b5061027261026d366004611ffd565b610f24565b60405161010c91906123b5565b34801561028b57600080fd5b506100ff61029a366004612129565b610f39565b3480156102ab57600080fd5b506100ff6102ba366004612129565b611031565b6000806102d46001600160a01b0388166111f3565b6001600160a01b031614156103045760405162461bcd60e51b81526004016102fb90612771565b60405180910390fd5b60008551116103255760405162461bcd60e51b81526004016102fb906124a6565b60015485516001600160a01b0390911690869060009061035557634e487b7160e01b600052603260045260246000fd5b60200260200101516001600160a01b0316146103835760405162461bcd60e51b81526004016102fb9061241f565b3360006103996001600160a01b038916876112c3565b60008054919250906001600160a01b031663fb3bdb4134846103bb8d8d610f24565b6103cd8e6001600160a01b03166113b4565b8b6040518663ffffffff1660e01b81526004016103ed94939291906128bb565b6000604051808303818588803b15801561040657600080fd5b505af115801561041a573d6000803e3d6000fd5b50505050506040513d6000823e601f3d908101601f191682016040526104439190810190611f4d565b90508060008151811061046657634e487b7160e01b600052603260045260246000fd5b60200260200101519350833411156104b9576001600160a01b0383166108fc61048f3487611468565b6040518115909202916000818181858888f193505050501580156104b7573d6000803e3d6000fd5b505b6104c68984898589611474565b50505095945050505050565b6001546000906001600160a01b03908116906104ef9086166111f3565b6001600160a01b0316146105155760405162461bcd60e51b81526004016102fb906125ab565b333461052a6001600160a01b038716826114de565b92508483101561054c5760405162461bcd60e51b81526004016102fb906126a4565b61055e866001600160a01b03166113b4565b6001600160a01b03166108fc829081150290604051600060405180830381858888f19350505050158015610596573d6000803e3d6000fd5b506105a48683858488611474565b50509392505050565b6000546001600160a01b031681565b6000546060906105da906001600160a01b03868116911684866115b2565b90505b9392505050565b6000806105f96001600160a01b0389166111f3565b6001600160a01b031614156106205760405162461bcd60e51b81526004016102fb90612771565b60008651116106415760405162461bcd60e51b81526004016102fb906124a6565b6001546001600160a01b039081169061065b9089166111f3565b6001600160a01b031614156106825760405162461bcd60e51b81526004016102fb906127ba565b6000866000815181106106a557634e487b7160e01b600052603260045260246000fd5b6020026020010151905060006106cd878a6001600160a01b03166112c390919063ffffffff16565b90506106e46001600160a01b0383163330896116c4565b6000546106fe906001600160a01b03848116911688611722565b600080546001600160a01b0316638803dbee838961071c8e8e610f24565b61072e8f6001600160a01b03166113b4565b8b6040518663ffffffff1660e01b815260040161074f9594939291906128fe565b600060405180830381600087803b15801561076957600080fd5b505af115801561077d573d6000803e3d6000fd5b505050506040513d6000823e601f3d908101601f191682016040526107a59190810190611f4d565b9050806000815181106107c857634e487b7160e01b600052603260045260246000fd5b60200260200101519350868410156108185760006107e68886611468565b90506107fc6001600160a01b03851633836117ce565b600054610816906001600160a01b038681169116836117f2565b505b6108258a338a8589611474565b5050509695505050505050565b6000806108476001600160a01b0388166111f3565b6001600160a01b0316141561086e5760405162461bcd60e51b81526004016102fb90612771565b600085511161088f5760405162461bcd60e51b81526004016102fb906124a6565b60015485516001600160a01b039091169086906000906108bf57634e487b7160e01b600052603260045260246000fd5b60200260200101516001600160a01b0316146108ed5760405162461bcd60e51b81526004016102fb9061241f565b333460006109046001600160a01b038a16886112c3565b60008054919250906001600160a01b0316637ff36ab584846109268e8e610f24565b6109388f6001600160a01b03166113b4565b8c6040518663ffffffff1660e01b815260040161095894939291906128bb565b6000604051808303818588803b15801561097157600080fd5b505af1158015610985573d6000803e3d6000fd5b50505050506040513d6000823e601f3d908101601f191682016040526109ae9190810190611f4d565b9050600081600183516109c191906129a0565b815181106109df57634e487b7160e01b600052603260045260246000fd5b60200260200101519050610a05818c6001600160a01b03166114de90919063ffffffff16565b9550610a148b8688848b611474565b505050505095945050505050565b600080610a376001600160a01b0387166111f3565b6001600160a01b03161415610a5e5760405162461bcd60e51b81526004016102fb90612771565b33610a726001600160a01b038716866114de565b915083821015610a945760405162461bcd60e51b81526004016102fb906126a4565b6000610aa8876001600160a01b03166111f3565b9050610ad282610ac0896001600160a01b03166113b4565b6001600160a01b0384169190896116c4565b610adf8783858988611474565b5050949350505050565b6001546000906001600160a01b0390811690610b069086166111f3565b6001600160a01b031614610b2c5760405162461bcd60e51b81526004016102fb906125ab565b33610b406001600160a01b038616856112c3565b915034821115610b625760405162461bcd60e51b81526004016102fb906126a4565b610b74856001600160a01b03166113b4565b6001600160a01b03166108fc839081150290604051600060405180830381858888f19350505050158015610bac573d6000803e3d6000fd5b5034821015610bf6576001600160a01b0381166108fc610bcc3485611468565b6040518115909202916000818181858888f19350505050158015610bf4573d6000803e3d6000fd5b505b610c038582868587611474565b509392505050565b600080546105da906001600160a01b03868116911684866118c2565b600080610c3c6001600160a01b0389166111f3565b6001600160a01b03161415610c635760405162461bcd60e51b81526004016102fb90612771565b6000865111610c845760405162461bcd60e51b81526004016102fb906124a6565b6001546001600160a01b0390811690610c9e9089166111f3565b6001600160a01b03161415610cc55760405162461bcd60e51b81526004016102fb906127ba565b600086600081518110610ce857634e487b7160e01b600052603260045260246000fd5b60209081029190910101519050610d0a6001600160a01b0382163330896116c4565b600054610d24906001600160a01b038381169116886119b1565b6000610d396001600160a01b038a16876112c3565b60008054919250906001600160a01b03166338ed17398984610d5b8e8e610f24565b610d6d8f6001600160a01b03166113b4565b8b6040518663ffffffff1660e01b8152600401610d8e9594939291906128fe565b600060405180830381600087803b158015610da857600080fd5b505af1158015610dbc573d6000803e3d6000fd5b505050506040513d6000823e601f3d908101601f19168201604052610de49190810190611f4d565b905060008160018351610df791906129a0565b81518110610e1557634e487b7160e01b600052603260045260246000fd5b60200260200101519050610e3b818c6001600160a01b03166114de90919063ffffffff16565b9450610e4a8b3387848a611474565b505050509695505050505050565b600080610e6d6001600160a01b0387166111f3565b6001600160a01b03161415610e945760405162461bcd60e51b81526004016102fb90612771565b336000610ea96001600160a01b0388166111f3565b9050610ebe6001600160a01b038816876112c3565b925084831115610ee05760405162461bcd60e51b81526004016102fb906126a4565b610f0882610ef6896001600160a01b03166113b4565b6001600160a01b0384169190866116c4565b610adf8783888688611474565b6001546001600160a01b031681565b60606105dd6001600160a01b03841683611a74565b600080865111610f5b5760405162461bcd60e51b81526004016102fb906124a6565b6001546001600160a01b0390811690610f759089166111f3565b6001600160a01b031614610f9b5760405162461bcd60e51b81526004016102fb90612852565b600086600081518110610fbe57634e487b7160e01b600052603260045260246000fd5b60209081029190910101519050610fe06001600160a01b0382163330896116c4565b600054610ffa906001600160a01b038381169116886119b1565b600061100f6001600160a01b038a16876112c3565b60008054919250906001600160a01b03166318cbafe58984610d5b8e8e610f24565b6000808651116110535760405162461bcd60e51b81526004016102fb906124a6565b6001546001600160a01b039081169061106d9089166111f3565b6001600160a01b0316146110935760405162461bcd60e51b81526004016102fb90612852565b6000866000815181106110b657634e487b7160e01b600052603260045260246000fd5b602090810291909101015190506110d86001600160a01b0382163330886116c4565b6000546110f2906001600160a01b03838116911687611722565b60006111076001600160a01b038a16886112c3565b60008054919250906001600160a01b0316634a25d94a83896111298e8e610f24565b61113b8f6001600160a01b03166113b4565b8b6040518663ffffffff1660e01b815260040161115c9594939291906128fe565b600060405180830381600087803b15801561117657600080fd5b505af115801561118a573d6000803e3d6000fd5b505050506040513d6000823e601f3d908101601f191682016040526111b29190810190611f4d565b9050806000815181106111d557634e487b7160e01b600052603260045260246000fd5b60200260200101519350838711156108185760006107e68886611468565b60408051600481526024810182526020810180516001600160e01b0316633bf35fd360e11b1790529051600091829182916001600160a01b0386169161123991906122f7565b600060405180830381855afa9150503d8060008114611274576040519150601f19603f3d011682016040523d82523d6000602084013e611279565b606091505b509150915081801561128b5750805115155b6112a75760405162461bcd60e51b81526004016102fb9061265d565b808060200190518101906112bb9190611f31565b949350505050565b6000806000846001600160a01b0316630ff4c91660e01b856040516024016112eb9190612899565b60408051601f198184030181529181526020820180516001600160e01b03166001600160e01b031990941693909317909252905161132991906122f7565b600060405180830381855afa9150503d8060008114611364576040519150601f19603f3d011682016040523d82523d6000602084013e611369565b606091505b509150915081801561137b5750805115155b6113975760405162461bcd60e51b81526004016102fb906125f1565b808060200190518101906113ab9190612270565b95945050505050565b60408051600481526024810182526020810180516001600160e01b03166338af3eed60e01b1790529051600091829182916001600160a01b038616916113fa91906122f7565b600060405180830381855afa9150503d8060008114611435576040519150601f19603f3d011682016040523d82523d6000602084013e61143a565b606091505b509150915081801561144c5750805115155b6112a75760405162461bcd60e51b81526004016102fb90612567565b60006105dd82846129a0565b61148a6001600160a01b03861685858585611c03565b836001600160a01b0316856001600160a01b03167fbf77fd13a39d14dc0da779342c14105c38d9a5d0c60f2caa22f5fd1d5525416d85856040516114cf9291906128f0565b60405180910390a35050505050565b6000806000846001600160a01b0316639980ec8660e01b856040516024016115069190612899565b60408051601f198184030181529181526020820180516001600160e01b03166001600160e01b031990941693909317909252905161154491906122f7565b600060405180830381855afa9150503d806000811461157f576040519150601f19603f3d011682016040523d82523d6000602084013e611584565b606091505b50915091508180156115965750805115155b6113975760405162461bcd60e51b81526004016102fb90612526565b606081516000141561161a5760408051600180825281830190925290602080830190803683370190505090506115e885846112c3565b8160008151811061160957634e487b7160e01b600052603260045260246000fd5b6020026020010181815250506112bb565b600061162686856112c3565b905060006116348785611a74565b6040516307c0329d60e21b81529091506001600160a01b03871690631f00ca749061166590859085906004016128a2565b60006040518083038186803b15801561167d57600080fd5b505afa158015611691573d6000803e3d6000fd5b505050506040513d6000823e601f3d908101601f191682016040526116b99190810190611f4d565b979650505050505050565b61171c846323b872dd60e01b8585856040516024016116e593929190612341565b60408051601f198184030181529190526020810180516001600160e01b03166001600160e01b031990931692909217909152611ce5565b50505050565b600081846001600160a01b031663dd62ed3e30866040518363ffffffff1660e01b8152600401611753929190612327565b60206040518083038186803b15801561176b57600080fd5b505afa15801561177f573d6000803e3d6000fd5b505050506040513d601f19601f820116820180604052508101906117a39190612270565b6117ad9190612988565b905061171c8463095ea7b360e01b85846040516024016116e5929190612365565b6117ed8363a9059cbb60e01b84846040516024016116e5929190612365565b505050565b604051636eb1769f60e11b81526000906001600160a01b0385169063dd62ed3e906118239030908790600401612327565b60206040518083038186803b15801561183b57600080fd5b505afa15801561184f573d6000803e3d6000fd5b505050506040513d601f19601f820116820180604052508101906118739190612270565b9050818110156118955760405162461bcd60e51b81526004016102fb906124dd565b604051828203906118bb90869063095ea7b360e01b906116e59088908690602401612365565b5050505050565b60008151600014156118df576118d885846114de565b90506112bb565b60006118eb8684611a74565b90506000856001600160a01b031663d06ca61f86846040518363ffffffff1660e01b815260040161191d9291906128a2565b60006040518083038186803b15801561193557600080fd5b505afa158015611949573d6000803e3d6000fd5b505050506040513d6000823e601f3d908101601f191682016040526119719190810190611f4d565b90506116b987826001845161198691906129a0565b815181106119a457634e487b7160e01b600052603260045260246000fd5b60200260200101516114de565b801580611a395750604051636eb1769f60e11b81526001600160a01b0384169063dd62ed3e906119e79030908690600401612327565b60206040518083038186803b1580156119ff57600080fd5b505afa158015611a13573d6000803e3d6000fd5b505050506040513d601f19601f82011682018060405250810190611a379190612270565b155b611a555760405162461bcd60e51b81526004016102fb906127fc565b6117ed8363095ea7b360e01b84846040516024016116e5929190612365565b8051606090611a84816001612988565b67ffffffffffffffff811115611aaa57634e487b7160e01b600052604160045260246000fd5b604051908082528060200260200182016040528015611ad3578160200160208202803683370190505b5091506000611ae1856111f3565b905060005b82811015611bb957816001600160a01b0316858281518110611b1857634e487b7160e01b600052603260045260246000fd5b60200260200101516001600160a01b03161415611b475760405162461bcd60e51b81526004016102fb90612725565b848181518110611b6757634e487b7160e01b600052603260045260246000fd5b6020026020010151848281518110611b8f57634e487b7160e01b600052603260045260246000fd5b6001600160a01b039092166020928302919091019091015280611bb1816129e3565b915050611ae6565b5080838381518110611bdb57634e487b7160e01b600052603260045260246000fd5b60200260200101906001600160a01b031690816001600160a01b031681525050505092915050565b600080866001600160a01b0316636c02557260e01b87878787604051602401611c2f949392919061237e565b60408051601f198184030181529181526020820180516001600160e01b03166001600160e01b0319909416939093179092529051611c6d91906122f7565b6000604051808303816000865af19150503d8060008114611caa576040519150601f19603f3d011682016040523d82523d6000602084013e611caf565b606091505b5091509150818015611cc057508051155b611cdc5760405162461bcd60e51b81526004016102fb9061246f565b50505050505050565b6000611d3a826040518060400160405280602081526020017f5361666545524332303a206c6f772d6c6576656c2063616c6c206661696c6564815250856001600160a01b0316611d749092919063ffffffff16565b8051909150156117ed5780806020019051810190611d589190611fdd565b6117ed5760405162461bcd60e51b81526004016102fb906126db565b60606105da848460008585611d8885611e12565b611da45760405162461bcd60e51b81526004016102fb90612626565b600080866001600160a01b03168587604051611dc091906122f7565b60006040518083038185875af1925050503d8060008114611dfd576040519150601f19603f3d011682016040523d82523d6000602084013e611e02565b606091505b50915091506116b9828286611e18565b3b151590565b60608315611e275750816105dd565b825115611e375782518084602001fd5b8160405162461bcd60e51b81526004016102fb919061240c565b600082601f830112611e61578081fd5b81356020611e76611e7183612964565b61293a565b8281528181019085830183850287018401881015611e92578586fd5b855b85811015611eb9578135611ea781612a2a565b84529284019290840190600101611e94565b5090979650505050505050565b600082601f830112611ed6578081fd5b813567ffffffffffffffff811115611ef057611ef0612a14565b611f03601f8201601f191660200161293a565b818152846020838601011115611f17578283fd5b816020850160208301379081016020019190915292915050565b600060208284031215611f42578081fd5b81516105dd81612a2a565b60006020808385031215611f5f578182fd5b825167ffffffffffffffff811115611f75578283fd5b8301601f81018513611f85578283fd5b8051611f93611e7182612964565b8181528381019083850185840285018601891015611faf578687fd5b8694505b83851015611fd1578051835260019490940193918501918501611fb3565b50979650505050505050565b600060208284031215611fee578081fd5b815180151581146105dd578182fd5b6000806040838503121561200f578081fd5b823561201a81612a2a565b9150602083013567ffffffffffffffff811115612035578182fd5b61204185828601611e51565b9150509250929050565b60008060006060848603121561205f578081fd5b833561206a81612a2a565b9250602084013567ffffffffffffffff811115612085578182fd5b61209186828701611e51565b925050604084013590509250925092565b600080600080600060a086880312156120b9578081fd5b85356120c481612a2a565b9450602086013567ffffffffffffffff808211156120e0578283fd5b6120ec89838a01611e51565b95506040880135945060608801359350608088013591508082111561210f578283fd5b5061211c88828901611ec6565b9150509295509295909350565b60008060008060008060c08789031215612141578081fd5b863561214c81612a2a565b9550602087013567ffffffffffffffff80821115612168578283fd5b6121748a838b01611e51565b965060408901359550606089013594506080890135935060a089013591508082111561219e578283fd5b506121ab89828a01611ec6565b9150509295509295509295565b6000806000606084860312156121cc578283fd5b83356121d781612a2a565b925060208401359150604084013567ffffffffffffffff8111156121f9578182fd5b61220586828701611ec6565b9150509250925092565b60008060008060808587031215612224578081fd5b843561222f81612a2a565b93506020850135925060408501359150606085013567ffffffffffffffff811115612258578182fd5b61226487828801611ec6565b91505092959194509250565b600060208284031215612281578081fd5b5051919050565b6000815180845260208085019450808401835b838110156122c05781516001600160a01b03168752958201959082019060010161229b565b509495945050505050565b600081518084526122e38160208601602086016129b7565b601f01601f19169290920160200192915050565b600082516123098184602087016129b7565b9190910192915050565b6001600160a01b0391909116815260200190565b6001600160a01b0392831681529116602082015260400190565b6001600160a01b039384168152919092166020820152604081019190915260600190565b6001600160a01b03929092168252602082015260400190565b600060018060a01b0386168252846020830152836040830152608060608301526123ab60808301846122cb565b9695505050505050565b6000602082526105dd6020830184612288565b6020808252825182820181905260009190848201906040850190845b81811015612400578351835292840192918401916001016123e4565b50909695505050505050565b6000602082526105dd60208301846122cb565b60208082526030908201527f5061796d656e743a2057455448206e6f7420746865206669727374206164647260408201526f32b9b99034b710383932903830ba341760811b606082015260800190565b60208082526017908201527f5265736f757263653a206062757960206661696c65642e000000000000000000604082015260600190565b60208082526018908201527f5061796d656e743a20656d7074792070726520706174682e0000000000000000604082015260600190565b60208082526029908201527f5361666545524332303a2064656372656173656420616c6c6f77616e63652062604082015268656c6f77207a65726f60b81b606082015260800190565b60208082526021908201527f5265736f757263653a2063616c6c2060616d6f756e744f6660206661696c65646040820152601760f91b606082015260800190565b60208082526024908201527f5265736f757263653a2063616c6c206062656e656669636961727960206661696040820152633632b21760e11b606082015260800190565b60208082526026908201527f5061796d656e743a207265736f75726365206e6f742076616c756174656420626040820152653c9022aa241760d11b606082015260800190565b6020808252818101527f5265736f757263653a2063616c6c206076616c75654f6660206661696c65642e604082015260600190565b6020808252601d908201527f416464726573733a2063616c6c20746f206e6f6e2d636f6e7472616374000000604082015260600190565b60208082526027908201527f5265736f757263653a2063616c6c206076616c756174696f6e546f6b656e60206040820152663330b4b632b21760c91b606082015260800190565b6020808252601c908201527f5061796d656e743a20696e73756666696369656e742076616c75652e00000000604082015260600190565b6020808252602a908201527f5361666545524332303a204552433230206f7065726174696f6e20646964206e6040820152691bdd081cdd58d8d9595960b21b606082015260800190565b6020808252602c908201527f5265736f757263653a2076616c756174696f6e546f6b656e206578736974732060408201526b34b710383932903830ba341760a11b606082015260800190565b60208082526029908201527f5061796d656e743a207265736f7572636520686173206e6f2076616c7561746960408201526837b7103a37b5b2b71760b91b606082015260800190565b60208082526022908201527f5061796d656e743a207265736f757263652076616c7561746564206279204554604082015261241760f11b606082015260800190565b60208082526036908201527f5361666545524332303a20617070726f76652066726f6d206e6f6e2d7a65726f60408201527520746f206e6f6e2d7a65726f20616c6c6f77616e636560501b606082015260800190565b60208082526027908201527f5061796d656e743a207265736f75726365206e6f742076616c756174656420626040820152663c902ba2aa241760c91b606082015260800190565b90815260200190565b6000838252604060208301526105da6040830184612288565b6000858252608060208301526128d46080830186612288565b6001600160a01b03949094166040830152506060015292915050565b918252602082015260400190565b600086825285602083015260a0604083015261291d60a0830186612288565b6001600160a01b0394909416606083015250608001529392505050565b60405181810167ffffffffffffffff8111828210171561295c5761295c612a14565b604052919050565b600067ffffffffffffffff82111561297e5761297e612a14565b5060209081020190565b6000821982111561299b5761299b6129fe565b500190565b6000828210156129b2576129b26129fe565b500390565b60005b838110156129d25781810151838201526020016129ba565b8381111561171c5750506000910152565b60006000198214156129f7576129f76129fe565b5060010190565b634e487b7160e01b600052601160045260246000fd5b634e487b7160e01b600052604160045260246000fd5b6001600160a01b0381168114612a3f57600080fd5b5056fea2646970667358221220a0a08db304d06ba0e9de9c35faa1b701794b9c0be36924afb89c1f97f81c613164736f6c63430008000033"
}