{
  "address": "0xa30A7619f2536584c1cb1393B38611099FF4588F",
  "abi": [
    {
      "inputs": [
        {
          "internalType": "contract IUniswapV2Router02",
          "name": "routerV2",
          "type": "address"
        },
        {
          "internalType": "address",
          "name": "WETH",
          "type": "address"
        }
      ],
      "stateMutability": "nonpayable",
      "type": "constructor"
    },
    {
      "anonymous": false,
      "inputs": [
        {
          "indexed": true,
          "internalType": "contract IResource",
          "name": "resource",
          "type": "address"
        },
        {
          "indexed": true,
          "internalType": "address",
          "name": "buyer",
          "type": "address"
        },
        {
          "indexed": false,
          "internalType": "uint256",
          "name": "amount",
          "type": "uint256"
        },
        {
          "indexed": false,
          "internalType": "uint256",
          "name": "value",
          "type": "uint256"
        }
      ],
      "name": "Bought",
      "type": "event"
    },
    {
      "anonymous": false,
      "inputs": [
        {
          "indexed": true,
          "internalType": "contract IResource",
          "name": "resource",
          "type": "address"
        },
        {
          "indexed": true,
          "internalType": "address",
          "name": "buyer",
          "type": "address"
        },
        {
          "indexed": false,
          "internalType": "uint256",
          "name": "amount",
          "type": "uint256"
        }
      ],
      "name": "SpendRollUp",
      "type": "event"
    },
    {
      "inputs": [],
      "name": "WETH",
      "outputs": [
        {
          "internalType": "address",
          "name": "",
          "type": "address"
        }
      ],
      "stateMutability": "view",
      "type": "function"
    },
    {
      "inputs": [
        {
          "internalType": "contract IResource",
          "name": "resource",
          "type": "address"
        },
        {
          "internalType": "uint256",
          "name": "amountOutMin",
          "type": "uint256"
        },
        {
          "internalType": "bytes",
          "name": "data",
          "type": "bytes"
        }
      ],
      "name": "buyETHValuatedResourceByExactETH",
      "outputs": [
        {
          "internalType": "uint256",
          "name": "amount",
          "type": "uint256"
        }
      ],
      "stateMutability": "payable",
      "type": "function"
    },
    {
      "inputs": [
        {
          "internalType": "contract IResource",
          "name": "resource",
          "type": "address"
        },
        {
          "internalType": "address[]",
          "name": "prePath",
          "type": "address[]"
        },
        {
          "internalType": "uint256",
          "name": "valueIn",
          "type": "uint256"
        },
        {
          "internalType": "uint256",
          "name": "amountOutMin",
          "type": "uint256"
        },
        {
          "internalType": "uint256",
          "name": "deadline",
          "type": "uint256"
        },
        {
          "internalType": "bytes",
          "name": "data",
          "type": "bytes"
        }
      ],
      "name": "buyETHValuatedResourceByExactToken",
      "outputs": [
        {
          "internalType": "uint256",
          "name": "amount",
          "type": "uint256"
        }
      ],
      "stateMutability": "nonpayable",
      "type": "function"
    },
    {
      "inputs": [
        {
          "internalType": "contract IResource",
          "name": "resource",
          "type": "address"
        },
        {
          "internalType": "uint256",
          "name": "amountOut",
          "type": "uint256"
        },
        {
          "internalType": "bytes",
          "name": "data",
          "type": "bytes"
        }
      ],
      "name": "buyExactETHValuatedResourceByETH",
      "outputs": [
        {
          "internalType": "uint256",
          "name": "value",
          "type": "uint256"
        }
      ],
      "stateMutability": "payable",
      "type": "function"
    },
    {
      "inputs": [
        {
          "internalType": "contract IResource",
          "name": "resource",
          "type": "address"
        },
        {
          "internalType": "address[]",
          "name": "prePath",
          "type": "address[]"
        },
        {
          "internalType": "uint256",
          "name": "amountOut",
          "type": "uint256"
        },
        {
          "internalType": "uint256",
          "name": "valueInMax",
          "type": "uint256"
        },
        {
          "internalType": "uint256",
          "name": "deadline",
          "type": "uint256"
        },
        {
          "internalType": "bytes",
          "name": "data",
          "type": "bytes"
        }
      ],
      "name": "buyExactETHValuatedResourceByToken",
      "outputs": [
        {
          "internalType": "uint256",
          "name": "value",
          "type": "uint256"
        }
      ],
      "stateMutability": "nonpayable",
      "type": "function"
    },
    {
      "inputs": [
        {
          "internalType": "contract IResource",
          "name": "resource",
          "type": "address"
        },
        {
          "internalType": "address[]",
          "name": "prePath",
          "type": "address[]"
        },
        {
          "internalType": "uint256",
          "name": "amountOut",
          "type": "uint256"
        },
        {
          "internalType": "uint256",
          "name": "deadline",
          "type": "uint256"
        },
        {
          "internalType": "bytes",
          "name": "data",
          "type": "bytes"
        }
      ],
      "name": "buyExactTokenValuatedResourceByETH",
      "outputs": [
        {
          "internalType": "uint256",
          "name": "value",
          "type": "uint256"
        }
      ],
      "stateMutability": "payable",
      "type": "function"
    },
    {
      "inputs": [
        {
          "internalType": "contract IResource",
          "name": "resource",
          "type": "address"
        },
        {
          "internalType": "address[]",
          "name": "prePath",
          "type": "address[]"
        },
        {
          "internalType": "uint256",
          "name": "amountOut",
          "type": "uint256"
        },
        {
          "internalType": "uint256",
          "name": "valueInMax",
          "type": "uint256"
        },
        {
          "internalType": "uint256",
          "name": "deadline",
          "type": "uint256"
        },
        {
          "internalType": "bytes",
          "name": "data",
          "type": "bytes"
        }
      ],
      "name": "buyExactTokenValuatedResourceByOtherToken",
      "outputs": [
        {
          "internalType": "uint256",
          "name": "value",
          "type": "uint256"
        }
      ],
      "stateMutability": "nonpayable",
      "type": "function"
    },
    {
      "inputs": [
        {
          "internalType": "contract IResource",
          "name": "resource",
          "type": "address"
        },
        {
          "internalType": "uint256",
          "name": "amountOut",
          "type": "uint256"
        },
        {
          "internalType": "uint256",
          "name": "valueInMax",
          "type": "uint256"
        },
        {
          "internalType": "bytes",
          "name": "data",
          "type": "bytes"
        }
      ],
      "name": "buyExactTokenValuatedResourceByToken",
      "outputs": [
        {
          "internalType": "uint256",
          "name": "value",
          "type": "uint256"
        }
      ],
      "stateMutability": "nonpayable",
      "type": "function"
    },
    {
      "inputs": [
        {
          "internalType": "contract IResource",
          "name": "resource",
          "type": "address"
        },
        {
          "internalType": "address[]",
          "name": "prePath",
          "type": "address[]"
        },
        {
          "internalType": "uint256",
          "name": "amountOutMin",
          "type": "uint256"
        },
        {
          "internalType": "uint256",
          "name": "deadline",
          "type": "uint256"
        },
        {
          "internalType": "bytes",
          "name": "data",
          "type": "bytes"
        }
      ],
      "name": "buyTokenValuatedResourceByExactETH",
      "outputs": [
        {
          "internalType": "uint256",
          "name": "amount",
          "type": "uint256"
        }
      ],
      "stateMutability": "payable",
      "type": "function"
    },
    {
      "inputs": [
        {
          "internalType": "contract IResource",
          "name": "resource",
          "type": "address"
        },
        {
          "internalType": "uint256",
          "name": "valueIn",
          "type": "uint256"
        },
        {
          "internalType": "uint256",
          "name": "amountOutMin",
          "type": "uint256"
        },
        {
          "internalType": "bytes",
          "name": "data",
          "type": "bytes"
        }
      ],
      "name": "buyTokenValuatedResourceByExactToken",
      "outputs": [
        {
          "internalType": "uint256",
          "name": "amount",
          "type": "uint256"
        }
      ],
      "stateMutability": "nonpayable",
      "type": "function"
    },
    {
      "inputs": [
        {
          "internalType": "contract IResource",
          "name": "resource",
          "type": "address"
        },
        {
          "internalType": "address[]",
          "name": "prePath",
          "type": "address[]"
        },
        {
          "internalType": "uint256",
          "name": "valueIn",
          "type": "uint256"
        },
        {
          "internalType": "uint256",
          "name": "amountOutMin",
          "type": "uint256"
        },
        {
          "internalType": "uint256",
          "name": "deadline",
          "type": "uint256"
        },
        {
          "internalType": "bytes",
          "name": "data",
          "type": "bytes"
        }
      ],
      "name": "buyTokenValuatedResourceByOtherExactToken",
      "outputs": [
        {
          "internalType": "uint256",
          "name": "amount",
          "type": "uint256"
        }
      ],
      "stateMutability": "nonpayable",
      "type": "function"
    },
    {
      "inputs": [
        {
          "internalType": "contract IResource",
          "name": "resource",
          "type": "address"
        },
        {
          "internalType": "address[]",
          "name": "prePath",
          "type": "address[]"
        },
        {
          "internalType": "uint256",
          "name": "valueIn",
          "type": "uint256"
        }
      ],
      "name": "getAmountOut",
      "outputs": [
        {
          "internalType": "uint256",
          "name": "amountOut",
          "type": "uint256"
        }
      ],
      "stateMutability": "view",
      "type": "function"
    },
    {
      "inputs": [
        {
          "internalType": "contract IResource",
          "name": "resource",
          "type": "address"
        },
        {
          "internalType": "address[]",
          "name": "prePath",
          "type": "address[]"
        },
        {
          "internalType": "uint256",
          "name": "amountOut",
          "type": "uint256"
        }
      ],
      "name": "getValuesIn",
      "outputs": [
        {
          "internalType": "uint256[]",
          "name": "valuesIn",
          "type": "uint256[]"
        }
      ],
      "stateMutability": "view",
      "type": "function"
    },
    {
      "inputs": [
        {
          "internalType": "contract IResource",
          "name": "resource",
          "type": "address"
        },
        {
          "internalType": "address[]",
          "name": "prePath",
          "type": "address[]"
        }
      ],
      "name": "path",
      "outputs": [
        {
          "internalType": "address[]",
          "name": "fullPath",
          "type": "address[]"
        }
      ],
      "stateMutability": "view",
      "type": "function"
    },
    {
      "inputs": [],
      "name": "routerV2",
      "outputs": [
        {
          "internalType": "contract IUniswapV2Router02",
          "name": "",
          "type": "address"
        }
      ],
      "stateMutability": "view",
      "type": "function"
    }
  ],
  "transactionHash": "0x99cc1e299cd577c96ab978ec37488df830213484d9ac209670991ed31b4047e0",
  "args": [
    "0x7a250d5630B4cF539739dF2C5dAcb4c659F2488D",
    "0xB4FBF271143F4FBf7B91A5ded31805e42b2208d6"
  ],
  "bytecode": "0x608060405234801561001057600080fd5b50604051613a2c380380613a2c8339818101604052604081101561003357600080fd5b508051602090910151600080546001600160a01b039384166001600160a01b031991821617909155600180549390921692169190911790556139b28061007a6000396000f3fe6080604052600436106100e75760003560e01c80635d6395a51161008a578063ad5c464811610059578063ad5c464814610b39578063cb93e6e114610b4e578063f2cd6f3d14610c0c578063f897e1ac14610d61576100e7565b80635d6395a51461079e57806392ed4262146108575780639fcf9f9814610917578063a21dc4b714610a6c576100e7565b8063528c9cc4116100c6578063528c9cc41461032a578063547463991461043a5780635692c2081461058f57806359d8db1f146106d1576100e7565b80626aef7f146100ec5780633af798da14610240578063502f7446146102f9575b600080fd5b61022e600480360360a081101561010257600080fd5b6001600160a01b038235169190810190604081016020820135600160201b81111561012c57600080fd5b82018360208201111561013e57600080fd5b803590602001918460208302840111600160201b8311171561015f57600080fd5b9190808060200260200160405190810160405280939291908181526020018383602002808284376000920191909152509295843595602086013595919450925060608101915060400135600160201b8111156101ba57600080fd5b8201836020820111156101cc57600080fd5b803590602001918460018302840111600160201b831117156101ed57600080fd5b91908080601f016020809104026020016040519081016040528093929190818152602001838380828437600092019190915250929550610eb6945050505050565b60408051918252519081900360200190f35b61022e6004803603606081101561025657600080fd5b6001600160a01b0382351691602081013591810190606081016040820135600160201b81111561028557600080fd5b82018360208201111561029757600080fd5b803590602001918460018302840111600160201b831117156102b857600080fd5b91908080601f0160208091040260200160405190810160405280939291908181526020018383808284376000920191909152509295506111e1945050505050565b34801561030557600080fd5b5061030e6112fe565b604080516001600160a01b039092168252519081900360200190f35b34801561033657600080fd5b506103ea6004803603606081101561034d57600080fd5b6001600160a01b038235169190810190604081016020820135600160201b81111561037757600080fd5b82018360208201111561038957600080fd5b803590602001918460208302840111600160201b831117156103aa57600080fd5b919080806020026020016040519081016040528093929190818152602001838360200280828437600092019190915250929550509135925061130d915050565b60408051602080825283518183015283519192839290830191858101910280838360005b8381101561042657818101518382015260200161040e565b505050509050019250505060405180910390f35b34801561044657600080fd5b5061022e600480360360c081101561045d57600080fd5b6001600160a01b038235169190810190604081016020820135600160201b81111561048757600080fd5b82018360208201111561049957600080fd5b803590602001918460208302840111600160201b831117156104ba57600080fd5b9190808060200260200160405190810160405280939291908181526020018383602002808284376000920191909152509295843595602086013595604081013595509193509150608081019060600135600160201b81111561051b57600080fd5b82018360208201111561052d57600080fd5b803590602001918460018302840111600160201b8311171561054e57600080fd5b91908080601f016020809104026020016040519081016040528093929190818152602001838380828437600092019190915250929550611335945050505050565b61022e600480360360a08110156105a557600080fd5b6001600160a01b038235169190810190604081016020820135600160201b8111156105cf57600080fd5b8201836020820111156105e157600080fd5b803590602001918460208302840111600160201b8311171561060257600080fd5b9190808060200260200160405190810160405280939291908181526020018383602002808284376000920191909152509295843595602086013595919450925060608101915060400135600160201b81111561065d57600080fd5b82018360208201111561066f57600080fd5b803590602001918460018302840111600160201b8311171561069057600080fd5b91908080601f0160208091040260200160405190810160405280939291908181526020018383808284376000920191909152509295506116a8945050505050565b3480156106dd57600080fd5b5061022e600480360360808110156106f457600080fd5b6001600160a01b038235169160208101359160408201359190810190608081016060820135600160201b81111561072a57600080fd5b82018360208201111561073c57600080fd5b803590602001918460018302840111600160201b8311171561075d57600080fd5b91908080601f0160208091040260200160405190810160405280939291908181526020018383808284376000920191909152509295506119ad945050505050565b61022e600480360360608110156107b457600080fd5b6001600160a01b0382351691602081013591810190606081016040820135600160201b8111156107e357600080fd5b8201836020820111156107f557600080fd5b803590602001918460018302840111600160201b8311171561081657600080fd5b91908080601f016020809104026020016040519081016040528093929190818152602001838380828437600092019190915250929550611ab6945050505050565b34801561086357600080fd5b5061022e6004803603606081101561087a57600080fd5b6001600160a01b038235169190810190604081016020820135600160201b8111156108a457600080fd5b8201836020820111156108b657600080fd5b803590602001918460208302840111600160201b831117156108d757600080fd5b9190808060200260200160405190810160405280939291908181526020018383602002808284376000920191909152509295505091359250611c1a915050565b34801561092357600080fd5b5061022e600480360360c081101561093a57600080fd5b6001600160a01b038235169190810190604081016020820135600160201b81111561096457600080fd5b82018360208201111561097657600080fd5b803590602001918460208302840111600160201b8311171561099757600080fd5b9190808060200260200160405190810160405280939291908181526020018383602002808284376000920191909152509295843595602086013595604081013595509193509150608081019060600135600160201b8111156109f857600080fd5b820183602082011115610a0a57600080fd5b803590602001918460018302840111600160201b83111715610a2b57600080fd5b91908080601f016020809104026020016040519081016040528093929190818152602001838380828437600092019190915250929550611c36945050505050565b348015610a7857600080fd5b5061022e60048036036080811015610a8f57600080fd5b6001600160a01b038235169160208101359160408201359190810190608081016060820135600160201b811115610ac557600080fd5b820183602082011115610ad757600080fd5b803590602001918460018302840111600160201b83111715610af857600080fd5b91908080601f016020809104026020016040519081016040528093929190818152602001838380828437600092019190915250929550611f82945050505050565b348015610b4557600080fd5b5061030e612081565b348015610b5a57600080fd5b506103ea60048036036040811015610b7157600080fd5b6001600160a01b038235169190810190604081016020820135600160201b811115610b9b57600080fd5b820183602082011115610bad57600080fd5b803590602001918460208302840111600160201b83111715610bce57600080fd5b919080806020026020016040519081016040528093929190818152602001838360200280828437600092019190915250929550612090945050505050565b348015610c1857600080fd5b5061022e600480360360c0811015610c2f57600080fd5b6001600160a01b038235169190810190604081016020820135600160201b811115610c5957600080fd5b820183602082011115610c6b57600080fd5b803590602001918460208302840111600160201b83111715610c8c57600080fd5b9190808060200260200160405190810160405280939291908181526020018383602002808284376000920191909152509295843595602086013595604081013595509193509150608081019060600135600160201b811115610ced57600080fd5b820183602082011115610cff57600080fd5b803590602001918460018302840111600160201b83111715610d2057600080fd5b91908080601f0160208091040260200160405190810160405280939291908181526020018383808284376000920191909152509295506120a5945050505050565b348015610d6d57600080fd5b5061022e600480360360c0811015610d8457600080fd5b6001600160a01b038235169190810190604081016020820135600160201b811115610dae57600080fd5b820183602082011115610dc057600080fd5b803590602001918460208302840111600160201b83111715610de157600080fd5b9190808060200260200160405190810160405280939291908181526020018383602002808284376000920191909152509295843595602086013595604081013595509193509150608081019060600135600160201b811115610e4257600080fd5b820183602082011115610e5457600080fd5b803590602001918460018302840111600160201b83111715610e7557600080fd5b91908080601f0160208091040260200160405190810160405280939291908181526020018383808284376000920191909152509295506121cc945050505050565b600080610ecb6001600160a01b038816612493565b6001600160a01b03161415610f115760405162461bcd60e51b81526004018080602001828103825260298152602001806138b56029913960400191505060405180910390fd5b6000855111610f55576040805162461bcd60e51b81526020600482015260186024820152600080516020613784833981519152604482015290519081900360640190fd5b60015485516001600160a01b03909116908690600090610f7157fe5b60200260200101516001600160a01b031614610fbe5760405162461bcd60e51b81526004018080602001828103825260308152602001806137546030913960400191505060405180910390fd5b336000610fd46001600160a01b038916876125cd565b6000549091506060906001600160a01b031663fb3bdb413484610ff78d8d612090565b6110098e6001600160a01b031661272d565b6040516001600160e01b031960e087901b168152600481018481526001600160a01b0383166044830152606482018e90526080602483019081528451608484015284518f9360a401906020878101910280838360005b8381101561107757818101518382015260200161105f565b50505050905001955050505050506000604051808303818588803b15801561109e57600080fd5b505af11580156110b2573d6000803e3d6000fd5b50505050506040513d6000823e601f3d908101601f1916820160405260208110156110dc57600080fd5b8101908080516040519392919084600160201b8211156110fb57600080fd5b90830190602082018581111561111057600080fd5b82518660208202830111600160201b8211171561112c57600080fd5b82525081516020918201928201910280838360005b83811015611159578181015183820152602001611141565b5050505090500160405250505090508060008151811061117557fe5b60200260200101519350833411156111c8576001600160a01b0383166108fc61119e3487612848565b6040518115909202916000818181858888f193505050501580156111c6573d6000803e3d6000fd5b505b6111d589848985896128a5565b50505095945050505050565b6001546000906001600160a01b03908116906111fe908616612493565b6001600160a01b0316146112435760405162461bcd60e51b81526004018080602001828103825260268152602001806138126026913960400191505060405180910390fd5b33346112586001600160a01b03871682612915565b92508483101561129d576040805162461bcd60e51b815260206004820152601c6024820152600080516020613936833981519152604482015290519081900360640190fd5b6112af866001600160a01b031661272d565b6001600160a01b03166108fc829081150290604051600060405180830381858888f193505050501580156112e7573d6000803e3d6000fd5b506112f586838584886128a5565b50509392505050565b6000546001600160a01b031681565b60005460609061132b906001600160a01b0386811691168486612a3f565b90505b9392505050565b60008061134a6001600160a01b038916612493565b6001600160a01b031614156113905760405162461bcd60e51b81526004018080602001828103825260298152602001806138b56029913960400191505060405180910390fd5b60008651116113d4576040805162461bcd60e51b81526020600482015260186024820152600080516020613784833981519152604482015290519081900360640190fd5b6001546001600160a01b03908116906113ee908916612493565b6001600160a01b031614156114345760405162461bcd60e51b81526004018080602001828103825260228152602001806138de6022913960400191505060405180910390fd5b60008660008151811061144357fe5b60200260200101519050600061146b878a6001600160a01b03166125cd90919063ffffffff16565b90506114826001600160a01b038316333089612c0d565b60005461149c906001600160a01b03848116911688612c6d565b6000546060906001600160a01b0316638803dbee83896114bc8e8e612090565b6114ce8f6001600160a01b031661272d565b8b6040518663ffffffff1660e01b81526004018086815260200185815260200180602001846001600160a01b03168152602001838152602001828103825285818151815260200191508051906020019060200280838360005b8381101561153f578181015183820152602001611527565b505050509050019650505050505050600060405180830381600087803b15801561156857600080fd5b505af115801561157c573d6000803e3d6000fd5b505050506040513d6000823e601f3d908101601f1916820160405260208110156115a557600080fd5b8101908080516040519392919084600160201b8211156115c457600080fd5b9083019060208201858111156115d957600080fd5b82518660208202830111600160201b821117156115f557600080fd5b82525081516020918201928201910280838360005b8381101561162257818101518382015260200161160a565b5050505090500160405250505090508060008151811061163e57fe5b602002602001015193508684101561168e57600061165c8886612848565b90506116726001600160a01b0385163383612d58565b60005461168c906001600160a01b03868116911683612daf565b505b61169b8a338a85896128a5565b5050509695505050505050565b6000806116bd6001600160a01b038816612493565b6001600160a01b031614156117035760405162461bcd60e51b81526004018080602001828103825260298152602001806138b56029913960400191505060405180910390fd5b6000855111611747576040805162461bcd60e51b81526020600482015260186024820152600080516020613784833981519152604482015290519081900360640190fd5b60015485516001600160a01b0390911690869060009061176357fe5b60200260200101516001600160a01b0316146117b05760405162461bcd60e51b81526004018080602001828103825260308152602001806137546030913960400191505060405180910390fd5b333460006117c76001600160a01b038a16886125cd565b6000549091506060906001600160a01b0316637ff36ab584846117ea8e8e612090565b6117fc8f6001600160a01b031661272d565b8c6040518663ffffffff1660e01b81526004018085815260200180602001846001600160a01b03168152602001838152602001828103825285818151815260200191508051906020019060200280838360005b8381101561186757818101518382015260200161184f565b50505050905001955050505050506000604051808303818588803b15801561188e57600080fd5b505af11580156118a2573d6000803e3d6000fd5b50505050506040513d6000823e601f3d908101601f1916820160405260208110156118cc57600080fd5b8101908080516040519392919084600160201b8211156118eb57600080fd5b90830190602082018581111561190057600080fd5b82518660208202830111600160201b8211171561191c57600080fd5b82525081516020918201928201910280838360005b83811015611949578181015183820152602001611931565b50505050905001604052505050905060008160018351038151811061196a57fe5b60200260200101519050611990818c6001600160a01b031661291590919063ffffffff16565b955061199f8b8688848b6128a5565b505050505095945050505050565b6000806119c26001600160a01b038716612493565b6001600160a01b03161415611a085760405162461bcd60e51b81526004018080602001828103825260298152602001806138b56029913960400191505060405180910390fd5b33611a1c6001600160a01b03871686612915565b915083821015611a61576040805162461bcd60e51b815260206004820152601c6024820152600080516020613936833981519152604482015290519081900360640190fd5b6000611a75876001600160a01b0316612493565b9050611a9f82611a8d896001600160a01b031661272d565b6001600160a01b038416919089612c0d565b611aac87838589886128a5565b5050949350505050565b6001546000906001600160a01b0390811690611ad3908616612493565b6001600160a01b031614611b185760405162461bcd60e51b81526004018080602001828103825260268152602001806138126026913960400191505060405180910390fd5b33611b2c6001600160a01b038616856125cd565b915034821115611b71576040805162461bcd60e51b815260206004820152601c6024820152600080516020613936833981519152604482015290519081900360640190fd5b611b83856001600160a01b031661272d565b6001600160a01b03166108fc839081150290604051600060405180830381858888f19350505050158015611bbb573d6000803e3d6000fd5b5034821015611c05576001600160a01b0381166108fc611bdb3485612848565b6040518115909202916000818181858888f19350505050158015611c03573d6000803e3d6000fd5b505b611c1285828685876128a5565b509392505050565b6000805461132b906001600160a01b0386811691168486612e51565b600080611c4b6001600160a01b038916612493565b6001600160a01b03161415611c915760405162461bcd60e51b81526004018080602001828103825260298152602001806138b56029913960400191505060405180910390fd5b6000865111611cd5576040805162461bcd60e51b81526020600482015260186024820152600080516020613784833981519152604482015290519081900360640190fd5b6001546001600160a01b0390811690611cef908916612493565b6001600160a01b03161415611d355760405162461bcd60e51b81526004018080602001828103825260228152602001806138de6022913960400191505060405180910390fd5b600086600081518110611d4457fe5b60209081029190910101519050611d666001600160a01b038216333089612c0d565b600054611d80906001600160a01b03838116911688612ffd565b6000611d956001600160a01b038a16876125cd565b6000549091506060906001600160a01b03166338ed17398984611db88e8e612090565b611dca8f6001600160a01b031661272d565b8b6040518663ffffffff1660e01b81526004018086815260200185815260200180602001846001600160a01b03168152602001838152602001828103825285818151815260200191508051906020019060200280838360005b83811015611e3b578181015183820152602001611e23565b505050509050019650505050505050600060405180830381600087803b158015611e6457600080fd5b505af1158015611e78573d6000803e3d6000fd5b505050506040513d6000823e601f3d908101601f191682016040526020811015611ea157600080fd5b8101908080516040519392919084600160201b821115611ec057600080fd5b908301906020820185811115611ed557600080fd5b82518660208202830111600160201b82111715611ef157600080fd5b82525081516020918201928201910280838360005b83811015611f1e578181015183820152602001611f06565b505050509050016040525050509050600081600183510381518110611f3f57fe5b60200260200101519050611f65818c6001600160a01b031661291590919063ffffffff16565b9450611f748b3387848a6128a5565b505050509695505050505050565b600080611f976001600160a01b038716612493565b6001600160a01b03161415611fdd5760405162461bcd60e51b81526004018080602001828103825260298152602001806138b56029913960400191505060405180910390fd5b336000611ff26001600160a01b038816612493565b90506120076001600160a01b038816876125cd565b92508483111561204c576040805162461bcd60e51b815260206004820152601c6024820152600080516020613936833981519152604482015290519081900360640190fd5b61207482612062896001600160a01b031661272d565b6001600160a01b038416919086612c0d565b611aac87838886886128a5565b6001546001600160a01b031681565b606061132e6001600160a01b03841683613110565b6000808651116120ea576040805162461bcd60e51b81526020600482015260186024820152600080516020613784833981519152604482015290519081900360640190fd5b6001546001600160a01b0390811690612104908916612493565b6001600160a01b0316146121495760405162461bcd60e51b81526004018080602001828103825260278152602001806139566027913960400191505060405180910390fd5b60008660008151811061215857fe5b6020908102919091010151905061217a6001600160a01b038216333089612c0d565b600054612194906001600160a01b03838116911688612ffd565b60006121a96001600160a01b038a16876125cd565b6000549091506060906001600160a01b03166318cbafe58984611db88e8e612090565b600080865111612211576040805162461bcd60e51b81526020600482015260186024820152600080516020613784833981519152604482015290519081900360640190fd5b6001546001600160a01b039081169061222b908916612493565b6001600160a01b0316146122705760405162461bcd60e51b81526004018080602001828103825260278152602001806139566027913960400191505060405180910390fd5b60008660008151811061227f57fe5b602090810291909101015190506122a16001600160a01b038216333088612c0d565b6000546122bb906001600160a01b03838116911687612c6d565b60006122d06001600160a01b038a16886125cd565b6000549091506060906001600160a01b0316634a25d94a83896122f38e8e612090565b6123058f6001600160a01b031661272d565b8b6040518663ffffffff1660e01b81526004018086815260200185815260200180602001846001600160a01b03168152602001838152602001828103825285818151815260200191508051906020019060200280838360005b8381101561237657818101518382015260200161235e565b505050509050019650505050505050600060405180830381600087803b15801561239f57600080fd5b505af11580156123b3573d6000803e3d6000fd5b505050506040513d6000823e601f3d908101601f1916820160405260208110156123dc57600080fd5b8101908080516040519392919084600160201b8211156123fb57600080fd5b90830190602082018581111561241057600080fd5b82518660208202830111600160201b8211171561242c57600080fd5b82525081516020918201928201910280838360005b83811015612459578181015183820152602001612441565b5050505090500160405250505090508060008151811061247557fe5b602002602001015193508387111561168e57600061165c8886612848565b60408051600481526024810182526020810180516001600160e01b0316633bf35fd360e11b1781529151815160009384936060936001600160a01b03881693919290918291908083835b602083106124fc5780518252601f1990920191602091820191016124dd565b6001836020036101000a038019825116818451168082178552505050505050905001915050600060405180830381855afa9150503d806000811461255c576040519150601f19603f3d011682016040523d82523d6000602084013e612561565b606091505b50915091508180156125735750805115155b6125ae5760405162461bcd60e51b81526004018080602001828103825260278152602001806138386027913960400191505060405180910390fd5b8080602001905160208110156125c357600080fd5b5051949350505050565b60408051602480820184905282518083039091018152604490910182526020810180516001600160e01b03166307fa648b60e11b1781529151815160009384936060936001600160a01b03891693919290918291908083835b602083106126455780518252601f199092019160209182019101612626565b6001836020036101000a038019825116818451168082178552505050505050905001915050600060405180830381855afa9150503d80600081146126a5576040519150601f19603f3d011682016040523d82523d6000602084013e6126aa565b606091505b50915091508180156126bc5750805115155b61270d576040805162461bcd60e51b815260206004820181905260248201527f5265736f757263653a2063616c6c206076616c75654f6660206661696c65642e604482015290519081900360640190fd5b80806020019051602081101561272257600080fd5b505195945050505050565b60408051600481526024810182526020810180516001600160e01b03166338af3eed60e01b1781529151815160009384936060936001600160a01b03881693919290918291908083835b602083106127965780518252601f199092019160209182019101612777565b6001836020036101000a038019825116818451168082178552505050505050905001915050600060405180830381855afa9150503d80600081146127f6576040519150601f19603f3d011682016040523d82523d6000602084013e6127fb565b606091505b509150915081801561280d5750805115155b6125ae5760405162461bcd60e51b81526004018080602001828103825260248152602001806137ee6024913960400191505060405180910390fd5b60008282111561289f576040805162461bcd60e51b815260206004820152601e60248201527f536166654d6174683a207375627472616374696f6e206f766572666c6f770000604482015290519081900360640190fd5b50900390565b6128bb6001600160a01b0386168585858561324e565b836001600160a01b0316856001600160a01b03167fbf77fd13a39d14dc0da779342c14105c38d9a5d0c60f2caa22f5fd1d5525416d8585604051808381526020018281526020019250505060405180910390a35050505050565b60408051602480820184905282518083039091018152604490910182526020810180516001600160e01b0316634cc0764360e11b1781529151815160009384936060936001600160a01b03891693919290918291908083835b6020831061298d5780518252601f19909201916020918201910161296e565b6001836020036101000a038019825116818451168082178552505050505050905001915050600060405180830381855afa9150503d80600081146129ed576040519150601f19603f3d011682016040523d82523d6000602084013e6129f2565b606091505b5091509150818015612a045750805115155b61270d5760405162461bcd60e51b81526004018080602001828103825260218152602001806137cd6021913960400191505060405180910390fd5b6060815160001415612a93576040805160018082528183019092529060208083019080368337019050509050612a7585846125cd565b81600081518110612a8257fe5b602002602001018181525050612c05565b6000612a9f86856125cd565b90506060612aad8785613110565b9050856001600160a01b0316631f00ca7483836040518363ffffffff1660e01b81526004018083815260200180602001828103825283818151815260200191508051906020019060200280838360005b83811015612b15578181015183820152602001612afd565b50505050905001935050505060006040518083038186803b158015612b3957600080fd5b505afa158015612b4d573d6000803e3d6000fd5b505050506040513d6000823e601f3d908101601f191682016040526020811015612b7657600080fd5b8101908080516040519392919084600160201b821115612b9557600080fd5b908301906020820185811115612baa57600080fd5b82518660208202830111600160201b82111715612bc657600080fd5b82525081516020918201928201910280838360005b83811015612bf3578181015183820152602001612bdb565b50505050905001604052505050925050505b949350505050565b604080516001600160a01b0380861660248301528416604482015260648082018490528251808303909101815260849091019091526020810180516001600160e01b03166323b872dd60e01b179052612c6790859061342a565b50505050565b6000612d0382856001600160a01b031663dd62ed3e30876040518363ffffffff1660e01b815260040180836001600160a01b03168152602001826001600160a01b031681526020019250505060206040518083038186803b158015612cd157600080fd5b505afa158015612ce5573d6000803e3d6000fd5b505050506040513d6020811015612cfb57600080fd5b5051906134db565b604080516001600160a01b038616602482015260448082018490528251808303909101815260649091019091526020810180516001600160e01b031663095ea7b360e01b179052909150612c6790859061342a565b604080516001600160a01b038416602482015260448082018490528251808303909101815260649091019091526020810180516001600160e01b031663a9059cbb60e01b179052612daa90849061342a565b505050565b6000612d03826040518060600160405280602981526020016137a46029913960408051636eb1769f60e11b81523060048201526001600160a01b03888116602483015291519189169163dd62ed3e91604480820192602092909190829003018186803b158015612e1e57600080fd5b505afa158015612e32573d6000803e3d6000fd5b505050506040513d6020811015612e4857600080fd5b50519190613535565b6000815160001415612e6e57612e678584612915565b9050612c05565b6060612e7a8684613110565b90506060856001600160a01b031663d06ca61f86846040518363ffffffff1660e01b81526004018083815260200180602001828103825283818151815260200191508051906020019060200280838360005b83811015612ee4578181015183820152602001612ecc565b50505050905001935050505060006040518083038186803b158015612f0857600080fd5b505afa158015612f1c573d6000803e3d6000fd5b505050506040513d6000823e601f3d908101601f191682016040526020811015612f4557600080fd5b8101908080516040519392919084600160201b821115612f6457600080fd5b908301906020820185811115612f7957600080fd5b82518660208202830111600160201b82111715612f9557600080fd5b82525081516020918201928201910280838360005b83811015612fc2578181015183820152602001612faa565b505050509050016040525050509050612ff28782600184510381518110612fe557fe5b6020026020010151612915565b979650505050505050565b801580613083575060408051636eb1769f60e11b81523060048201526001600160a01b03848116602483015291519185169163dd62ed3e91604480820192602092909190829003018186803b15801561305557600080fd5b505afa158015613069573d6000803e3d6000fd5b505050506040513d602081101561307f57600080fd5b5051155b6130be5760405162461bcd60e51b81526004018080602001828103825260368152602001806139006036913960400191505060405180910390fd5b604080516001600160a01b038416602482015260448082018490528251808303909101815260649091019091526020810180516001600160e01b031663095ea7b360e01b179052612daa90849061342a565b80516060906001810167ffffffffffffffff8111801561312f57600080fd5b50604051908082528060200260200182016040528015613159578160200160208202803683370190505b509150600061316785612493565b905060005b8281101561321857816001600160a01b031685828151811061318a57fe5b60200260200101516001600160a01b031614156131d85760405162461bcd60e51b815260040180806020018281038252602c815260200180613889602c913960400191505060405180910390fd5b8481815181106131e457fe5b60200260200101518482815181106131f857fe5b6001600160a01b039092166020928302919091019091015260010161316c565b508083838151811061322657fe5b60200260200101906001600160a01b031690816001600160a01b031681525050505092915050565b60006060866001600160a01b0316636c02557260e01b8787878760405160240180856001600160a01b0316815260200184815260200183815260200180602001828103825283818151815260200191508051906020019080838360005b838110156132c35781810151838201526020016132ab565b50505050905090810190601f1680156132f05780820380516001836020036101000a031916815260200191505b5060408051601f198184030181529181526020820180516001600160e01b03166001600160e01b0319909a16999099178952518151919890975087965094509250829150849050835b602083106133585780518252601f199092019160209182019101613339565b6001836020036101000a0380198251168184511680821785525050505050509050019150506000604051808303816000865af19150503d80600081146133ba576040519150601f19603f3d011682016040523d82523d6000602084013e6133bf565b606091505b50915091508180156133d057508051155b613421576040805162461bcd60e51b815260206004820152601760248201527f5265736f757263653a206062757960206661696c65642e000000000000000000604482015290519081900360640190fd5b50505050505050565b606061347f826040518060400160405280602081526020017f5361666545524332303a206c6f772d6c6576656c2063616c6c206661696c6564815250856001600160a01b03166135cc9092919063ffffffff16565b805190915015612daa5780806020019051602081101561349e57600080fd5b5051612daa5760405162461bcd60e51b815260040180806020018281038252602a81526020018061385f602a913960400191505060405180910390fd5b60008282018381101561132e576040805162461bcd60e51b815260206004820152601b60248201527f536166654d6174683a206164646974696f6e206f766572666c6f770000000000604482015290519081900360640190fd5b600081848411156135c45760405162461bcd60e51b81526004018080602001828103825283818151815260200191508051906020019080838360005b83811015613589578181015183820152602001613571565b50505050905090810190601f1680156135b65780820380516001836020036101000a031916815260200191505b509250505060405180910390fd5b505050900390565b606061132b8484600085856135e0856136e7565b613631576040805162461bcd60e51b815260206004820152601d60248201527f416464726573733a2063616c6c20746f206e6f6e2d636f6e7472616374000000604482015290519081900360640190fd5b60006060866001600160a01b031685876040518082805190602001908083835b602083106136705780518252601f199092019160209182019101613651565b6001836020036101000a03801982511681845116808217855250505050505090500191505060006040518083038185875af1925050503d80600081146136d2576040519150601f19603f3d011682016040523d82523d6000602084013e6136d7565b606091505b5091509150612ff28282866136ed565b3b151590565b606083156136fc57508161132e565b82511561370c5782518084602001fd5b60405162461bcd60e51b815260206004820181815284516024840152845185939192839260440191908501908083836000831561358957818101518382015260200161357156fe5061796d656e743a2057455448206e6f7420746865206669727374206164647265737320696e2070726520706174682e5061796d656e743a20656d7074792070726520706174682e00000000000000005361666545524332303a2064656372656173656420616c6c6f77616e63652062656c6f77207a65726f5265736f757263653a2063616c6c2060616d6f756e744f6660206661696c65642e5265736f757263653a2063616c6c206062656e656669636961727960206661696c65642e5061796d656e743a207265736f75726365206e6f742076616c7561746564206279204554482e5265736f757263653a2063616c6c206076616c756174696f6e546f6b656e60206661696c65642e5361666545524332303a204552433230206f7065726174696f6e20646964206e6f7420737563636565645265736f757263653a2076616c756174696f6e546f6b656e2065787369747320696e2070726520706174682e5061796d656e743a207265736f7572636520686173206e6f2076616c756174696f6e20746f6b656e2e5061796d656e743a207265736f757263652076616c7561746564206279204554482e5361666545524332303a20617070726f76652066726f6d206e6f6e2d7a65726f20746f206e6f6e2d7a65726f20616c6c6f77616e63655061796d656e743a20696e73756666696369656e742076616c75652e000000005061796d656e743a207265736f75726365206e6f742076616c756174656420627920574554482ea2646970667358221220556fdda9f0da80d24830de4784b2c7cc00d53a387859f40f89551e7924ef8a0064736f6c63430007030033"
}