{
  "address": "0x535E4C5142a0F98d1f6c4DD01781791a3ff09C6C",
  "abi": [
    {
      "inputs": [
        {
          "internalType": "contract IUniswapV2Router02",
          "name": "routerV2",
          "type": "address"
        },
        {
          "internalType": "address",
          "name": "WETH",
          "type": "address"
        }
      ],
      "stateMutability": "nonpayable",
      "type": "constructor"
    },
    {
      "anonymous": false,
      "inputs": [
        {
          "indexed": true,
          "internalType": "contract IResource",
          "name": "resource",
          "type": "address"
        },
        {
          "indexed": true,
          "internalType": "address",
          "name": "buyer",
          "type": "address"
        },
        {
          "indexed": false,
          "internalType": "uint256",
          "name": "amount",
          "type": "uint256"
        },
        {
          "indexed": false,
          "internalType": "uint256",
          "name": "value",
          "type": "uint256"
        }
      ],
      "name": "Bought",
      "type": "event"
    },
    {
      "anonymous": false,
      "inputs": [
        {
          "indexed": true,
          "internalType": "contract IResource",
          "name": "resource",
          "type": "address"
        },
        {
          "indexed": true,
          "internalType": "address",
          "name": "buyer",
          "type": "address"
        },
        {
          "indexed": false,
          "internalType": "uint256",
          "name": "amount",
          "type": "uint256"
        }
      ],
      "name": "SpendRollUp",
      "type": "event"
    },
    {
      "inputs": [],
      "name": "WETH",
      "outputs": [
        {
          "internalType": "address",
          "name": "",
          "type": "address"
        }
      ],
      "stateMutability": "view",
      "type": "function"
    },
    {
      "inputs": [
        {
          "internalType": "contract IResource",
          "name": "resource",
          "type": "address"
        },
        {
          "internalType": "uint256",
          "name": "amountOutMin",
          "type": "uint256"
        }
      ],
      "name": "buyETHValuatedResourceByExactETH",
      "outputs": [
        {
          "internalType": "uint256",
          "name": "amount",
          "type": "uint256"
        }
      ],
      "stateMutability": "payable",
      "type": "function"
    },
    {
      "inputs": [
        {
          "internalType": "contract IResource",
          "name": "resource",
          "type": "address"
        },
        {
          "internalType": "address[]",
          "name": "prePath",
          "type": "address[]"
        },
        {
          "internalType": "uint256",
          "name": "valueIn",
          "type": "uint256"
        },
        {
          "internalType": "uint256",
          "name": "amountOutMin",
          "type": "uint256"
        },
        {
          "internalType": "uint256",
          "name": "deadline",
          "type": "uint256"
        }
      ],
      "name": "buyETHValuatedResourceByExactToken",
      "outputs": [
        {
          "internalType": "uint256",
          "name": "amount",
          "type": "uint256"
        }
      ],
      "stateMutability": "nonpayable",
      "type": "function"
    },
    {
      "inputs": [
        {
          "internalType": "contract IResource",
          "name": "resource",
          "type": "address"
        },
        {
          "internalType": "uint256",
          "name": "amountOut",
          "type": "uint256"
        }
      ],
      "name": "buyExactETHValuatedResourceByETH",
      "outputs": [
        {
          "internalType": "uint256",
          "name": "value",
          "type": "uint256"
        }
      ],
      "stateMutability": "payable",
      "type": "function"
    },
    {
      "inputs": [
        {
          "internalType": "contract IResource",
          "name": "resource",
          "type": "address"
        },
        {
          "internalType": "address[]",
          "name": "prePath",
          "type": "address[]"
        },
        {
          "internalType": "uint256",
          "name": "amountOut",
          "type": "uint256"
        },
        {
          "internalType": "uint256",
          "name": "valueInMax",
          "type": "uint256"
        },
        {
          "internalType": "uint256",
          "name": "deadline",
          "type": "uint256"
        }
      ],
      "name": "buyExactETHValuatedResourceByToken",
      "outputs": [
        {
          "internalType": "uint256",
          "name": "value",
          "type": "uint256"
        }
      ],
      "stateMutability": "nonpayable",
      "type": "function"
    },
    {
      "inputs": [
        {
          "internalType": "contract IResource",
          "name": "resource",
          "type": "address"
        },
        {
          "internalType": "address[]",
          "name": "prePath",
          "type": "address[]"
        },
        {
          "internalType": "uint256",
          "name": "amountOut",
          "type": "uint256"
        },
        {
          "internalType": "uint256",
          "name": "deadline",
          "type": "uint256"
        }
      ],
      "name": "buyExactTokenValuatedResourceByETH",
      "outputs": [
        {
          "internalType": "uint256",
          "name": "value",
          "type": "uint256"
        }
      ],
      "stateMutability": "payable",
      "type": "function"
    },
    {
      "inputs": [
        {
          "internalType": "contract IResource",
          "name": "resource",
          "type": "address"
        },
        {
          "internalType": "address[]",
          "name": "prePath",
          "type": "address[]"
        },
        {
          "internalType": "uint256",
          "name": "amountOut",
          "type": "uint256"
        },
        {
          "internalType": "uint256",
          "name": "valueInMax",
          "type": "uint256"
        },
        {
          "internalType": "uint256",
          "name": "deadline",
          "type": "uint256"
        }
      ],
      "name": "buyExactTokenValuatedResourceByOtherToken",
      "outputs": [
        {
          "internalType": "uint256",
          "name": "value",
          "type": "uint256"
        }
      ],
      "stateMutability": "nonpayable",
      "type": "function"
    },
    {
      "inputs": [
        {
          "internalType": "contract IResource",
          "name": "resource",
          "type": "address"
        },
        {
          "internalType": "uint256",
          "name": "amountOut",
          "type": "uint256"
        },
        {
          "internalType": "uint256",
          "name": "valueInMax",
          "type": "uint256"
        }
      ],
      "name": "buyExactTokenValuatedResourceByToken",
      "outputs": [
        {
          "internalType": "uint256",
          "name": "value",
          "type": "uint256"
        }
      ],
      "stateMutability": "nonpayable",
      "type": "function"
    },
    {
      "inputs": [
        {
          "internalType": "contract IResource",
          "name": "resource",
          "type": "address"
        },
        {
          "internalType": "address[]",
          "name": "prePath",
          "type": "address[]"
        },
        {
          "internalType": "uint256",
          "name": "amountOutMin",
          "type": "uint256"
        },
        {
          "internalType": "uint256",
          "name": "deadline",
          "type": "uint256"
        }
      ],
      "name": "buyTokenValuatedResourceByExactETH",
      "outputs": [
        {
          "internalType": "uint256",
          "name": "amount",
          "type": "uint256"
        }
      ],
      "stateMutability": "payable",
      "type": "function"
    },
    {
      "inputs": [
        {
          "internalType": "contract IResource",
          "name": "resource",
          "type": "address"
        },
        {
          "internalType": "uint256",
          "name": "valueIn",
          "type": "uint256"
        },
        {
          "internalType": "uint256",
          "name": "amountOutMin",
          "type": "uint256"
        }
      ],
      "name": "buyTokenValuatedResourceByExactToken",
      "outputs": [
        {
          "internalType": "uint256",
          "name": "amount",
          "type": "uint256"
        }
      ],
      "stateMutability": "nonpayable",
      "type": "function"
    },
    {
      "inputs": [
        {
          "internalType": "contract IResource",
          "name": "resource",
          "type": "address"
        },
        {
          "internalType": "address[]",
          "name": "prePath",
          "type": "address[]"
        },
        {
          "internalType": "uint256",
          "name": "valueIn",
          "type": "uint256"
        },
        {
          "internalType": "uint256",
          "name": "amountOutMin",
          "type": "uint256"
        },
        {
          "internalType": "uint256",
          "name": "deadline",
          "type": "uint256"
        }
      ],
      "name": "buyTokenValuatedResourceByOtherExactToken",
      "outputs": [
        {
          "internalType": "uint256",
          "name": "amount",
          "type": "uint256"
        }
      ],
      "stateMutability": "nonpayable",
      "type": "function"
    },
    {
      "inputs": [
        {
          "internalType": "contract IResource",
          "name": "resource",
          "type": "address"
        },
        {
          "internalType": "address[]",
          "name": "prePath",
          "type": "address[]"
        },
        {
          "internalType": "uint256",
          "name": "valueIn",
          "type": "uint256"
        }
      ],
      "name": "getAmountOut",
      "outputs": [
        {
          "internalType": "uint256",
          "name": "amountOut",
          "type": "uint256"
        }
      ],
      "stateMutability": "view",
      "type": "function"
    },
    {
      "inputs": [
        {
          "internalType": "contract IResource",
          "name": "resource",
          "type": "address"
        },
        {
          "internalType": "address[]",
          "name": "prePath",
          "type": "address[]"
        },
        {
          "internalType": "uint256",
          "name": "amountOut",
          "type": "uint256"
        }
      ],
      "name": "getValuesIn",
      "outputs": [
        {
          "internalType": "uint256[]",
          "name": "valuesIn",
          "type": "uint256[]"
        }
      ],
      "stateMutability": "view",
      "type": "function"
    },
    {
      "inputs": [
        {
          "internalType": "contract IResource",
          "name": "resource",
          "type": "address"
        },
        {
          "internalType": "address[]",
          "name": "prePath",
          "type": "address[]"
        }
      ],
      "name": "path",
      "outputs": [
        {
          "internalType": "address[]",
          "name": "fullPath",
          "type": "address[]"
        }
      ],
      "stateMutability": "view",
      "type": "function"
    },
    {
      "inputs": [],
      "name": "routerV2",
      "outputs": [
        {
          "internalType": "contract IUniswapV2Router02",
          "name": "",
          "type": "address"
        }
      ],
      "stateMutability": "view",
      "type": "function"
    }
  ],
  "transactionHash": "0x87bc898e9c142b43c645c3382ce97a30c143d3b0949b91e6c59a78f603509589",
  "args": [
    "0x7a250d5630B4cF539739dF2C5dAcb4c659F2488D",
    "0xB4FBF271143F4FBf7B91A5ded31805e42b2208d6"
  ],
  "bytecode": "0x608060405234801561001057600080fd5b5060405161361b38038061361b8339818101604052604081101561003357600080fd5b508051602090910151600080546001600160a01b039384166001600160a01b031991821617909155600180549390921692169190911790556135a18061007a6000396000f3fe6080604052600436106100e85760003560e01c8063ad5c46481161008a578063c7f1082211610059578063c7f10822146106bd578063cb93e6e1146106e9578063cf65d6b3146107a7578063d713c7e414610870576100e8565b8063ad5c464814610473578063b8f788b614610488578063bcbfac211461053e578063c548bdd914610607576100e8565b8063528c9cc4116100c6578063528c9cc41461019b57806368b86059146102ab57806370b210091461037457806392ed4262146103b3576100e8565b80631ff52ffb146100ed5780632663552f1461012b578063502f74461461016a575b600080fd5b6101196004803603604081101561010357600080fd5b506001600160a01b038135169060200135610939565b60408051918252519081900360200190f35b34801561013757600080fd5b506101196004803603606081101561014e57600080fd5b506001600160a01b038135169060208101359060400135610a54565b34801561017657600080fd5b5061017f610b5b565b604080516001600160a01b039092168252519081900360200190f35b3480156101a757600080fd5b5061025b600480360360608110156101be57600080fd5b6001600160a01b038235169190810190604081016020820135600160201b8111156101e857600080fd5b8201836020820111156101fa57600080fd5b803590602001918460208302840111600160201b8311171561021b57600080fd5b9190808060200260200160405190810160405280939291908181526020018383602002808284376000920191909152509295505091359250610b6a915050565b60408051602080825283518183015283519192839290830191858101910280838360005b8381101561029757818101518382015260200161027f565b505050509050019250505060405180910390f35b3480156102b757600080fd5b50610119600480360360a08110156102ce57600080fd5b6001600160a01b038235169190810190604081016020820135600160201b8111156102f857600080fd5b82018360208201111561030a57600080fd5b803590602001918460208302840111600160201b8311171561032b57600080fd5b9190808060200260200160405190810160405280939291908181526020018383602002808284376000920191909152509295505082359350505060208101359060400135610b92565b34801561038057600080fd5b506101196004803603606081101561039757600080fd5b506001600160a01b038135169060208101359060400135610e87565b3480156103bf57600080fd5b50610119600480360360608110156103d657600080fd5b6001600160a01b038235169190810190604081016020820135600160201b81111561040057600080fd5b82018360208201111561041257600080fd5b803590602001918460208302840111600160201b8311171561043357600080fd5b9190808060200260200160405190810160405280939291908181526020018383602002808284376000920191909152509295505091359250610f85915050565b34801561047f57600080fd5b5061017f610fa1565b6101196004803603608081101561049e57600080fd5b6001600160a01b038235169190810190604081016020820135600160201b8111156104c857600080fd5b8201836020820111156104da57600080fd5b803590602001918460208302840111600160201b831117156104fb57600080fd5b9190808060200260200160405190810160405280939291908181526020018383602002808284376000920191909152509295505082359350505060200135610fb0565b34801561054a57600080fd5b50610119600480360360a081101561056157600080fd5b6001600160a01b038235169190810190604081016020820135600160201b81111561058b57600080fd5b82018360208201111561059d57600080fd5b803590602001918460208302840111600160201b831117156105be57600080fd5b91908080602002602001604051908101604052809392919081815260200183836020028082843760009201919091525092955050823593505050602081013590604001356112b6565b6101196004803603608081101561061d57600080fd5b6001600160a01b038235169190810190604081016020820135600160201b81111561064757600080fd5b82018360208201111561065957600080fd5b803590602001918460208302840111600160201b8311171561067a57600080fd5b91908080602002602001604051908101604052809392919081815260200183836020028082843760009201919091525092955050823593505050602001356115f4565b610119600480360360408110156106d357600080fd5b506001600160a01b03813516906020013561191d565b3480156106f557600080fd5b5061025b6004803603604081101561070c57600080fd5b6001600160a01b038235169190810190604081016020820135600160201b81111561073657600080fd5b82018360208201111561074857600080fd5b803590602001918460208302840111600160201b8311171561076957600080fd5b919080806020026020016040519081016040528093929190818152602001838360200280828437600092019190915250929550611a7f945050505050565b3480156107b357600080fd5b50610119600480360360a08110156107ca57600080fd5b6001600160a01b038235169190810190604081016020820135600160201b8111156107f457600080fd5b82018360208201111561080657600080fd5b803590602001918460208302840111600160201b8311171561082757600080fd5b9190808060200260200160405190810160405280939291908181526020018383602002808284376000920191909152509295505082359350505060208101359060400135611a94565b34801561087c57600080fd5b50610119600480360360a081101561089357600080fd5b6001600160a01b038235169190810190604081016020820135600160201b8111156108bd57600080fd5b8201836020820111156108cf57600080fd5b803590602001918460208302840111600160201b831117156108f057600080fd5b9190808060200260200160405190810160405280939291908181526020018383602002808284376000920191909152509295505082359350505060208101359060400135611dab565b6001546000906001600160a01b039081169061095690851661210b565b6001600160a01b03161461099b5760405162461bcd60e51b81526004018080602001828103825260268152602001806134016026913960400191505060405180910390fd5b33346109b06001600160a01b03861682612245565b9250838310156109f5576040805162461bcd60e51b815260206004820152601c6024820152600080516020613525833981519152604482015290519081900360640190fd5b610a07856001600160a01b031661238f565b6001600160a01b03166108fc829081150290604051600060405180830381858888f19350505050158015610a3f573d6000803e3d6000fd5b50610a4c858385846124aa565b505092915050565b600080610a696001600160a01b03861661210b565b6001600160a01b03161415610aaf5760405162461bcd60e51b81526004018080602001828103825260298152602001806134a46029913960400191505060405180910390fd5b336000610ac46001600160a01b03871661210b565b9050610ad96001600160a01b03871686612518565b925083831115610b1e576040805162461bcd60e51b815260206004820152601c6024820152600080516020613525833981519152604482015290519081900360640190fd5b610b4682610b34886001600160a01b031661238f565b6001600160a01b038416919086612658565b610b52868387866124aa565b50509392505050565b6000546001600160a01b031681565b600054606090610b88906001600160a01b03868116911684866126b8565b90505b9392505050565b600080855111610bd7576040805162461bcd60e51b81526020600482015260186024820152600080516020613373833981519152604482015290519081900360640190fd5b6001546001600160a01b0390811690610bf190881661210b565b6001600160a01b031614610c365760405162461bcd60e51b81526004018080602001828103825260278152602001806135456027913960400191505060405180910390fd5b6000339050600086600081518110610c4a57fe5b60209081029190910101519050610c6c6001600160a01b038216833089612658565b600054610c86906001600160a01b03838116911688612886565b6000610c9b6001600160a01b038a1687612518565b6000549091506060906001600160a01b03166318cbafe58984610cbe8e8e611a7f565b610cd08f6001600160a01b031661238f565b8b6040518663ffffffff1660e01b81526004018086815260200185815260200180602001846001600160a01b03168152602001838152602001828103825285818151815260200191508051906020019060200280838360005b83811015610d41578181015183820152602001610d29565b505050509050019650505050505050600060405180830381600087803b158015610d6a57600080fd5b505af1158015610d7e573d6000803e3d6000fd5b505050506040513d6000823e601f3d908101601f191682016040526020811015610da757600080fd5b8101908080516040519392919084600160201b821115610dc657600080fd5b908301906020820185811115610ddb57600080fd5b82518660208202830111600160201b82111715610df757600080fd5b82525081516020918201928201910280838360005b83811015610e24578181015183820152602001610e0c565b505050509050016040525050509050600081600183510381518110610e4557fe5b60200260200101519050610e6b818c6001600160a01b031661224590919063ffffffff16565b9550610e798b8688846124aa565b505050505095945050505050565b600080610e9c6001600160a01b03861661210b565b6001600160a01b03161415610ee25760405162461bcd60e51b81526004018080602001828103825260298152602001806134a46029913960400191505060405180910390fd5b33610ef66001600160a01b03861685612245565b915082821015610f3b576040805162461bcd60e51b815260206004820152601c6024820152600080516020613525833981519152604482015290519081900360640190fd5b6000610f4f866001600160a01b031661210b565b9050610f7982610f67886001600160a01b031661238f565b6001600160a01b038416919088612658565b610b52868385886124aa565b60008054610b88906001600160a01b038681169116848661299e565b6001546001600160a01b031681565b600080610fc56001600160a01b03871661210b565b6001600160a01b0316141561100b5760405162461bcd60e51b81526004018080602001828103825260298152602001806134a46029913960400191505060405180910390fd5b600084511161104f576040805162461bcd60e51b81526020600482015260186024820152600080516020613373833981519152604482015290519081900360640190fd5b60015484516001600160a01b0390911690859060009061106b57fe5b60200260200101516001600160a01b0316146110b85760405162461bcd60e51b81526004018080602001828103825260308152602001806133436030913960400191505060405180910390fd5b333460006110cf6001600160a01b03891687612518565b6000549091506060906001600160a01b0316637ff36ab584846110f28d8d611a7f565b6111048e6001600160a01b031661238f565b6040516001600160e01b031960e087901b168152600481018481526001600160a01b0383166044830152606482018e90526080602483019081528451608484015284518f9360a401906020878101910280838360005b8381101561117257818101518382015260200161115a565b50505050905001955050505050506000604051808303818588803b15801561119957600080fd5b505af11580156111ad573d6000803e3d6000fd5b50505050506040513d6000823e601f3d908101601f1916820160405260208110156111d757600080fd5b8101908080516040519392919084600160201b8211156111f657600080fd5b90830190602082018581111561120b57600080fd5b82518660208202830111600160201b8211171561122757600080fd5b82525081516020918201928201910280838360005b8381101561125457818101518382015260200161123c565b50505050905001604052505050905060008160018351038151811061127557fe5b6020026020010151905061129b818b6001600160a01b031661224590919063ffffffff16565b95506112a98a8688846124aa565b5050505050949350505050565b6000806112cb6001600160a01b03881661210b565b6001600160a01b031614156113115760405162461bcd60e51b81526004018080602001828103825260298152602001806134a46029913960400191505060405180910390fd5b6000855111611355576040805162461bcd60e51b81526020600482015260186024820152600080516020613373833981519152604482015290519081900360640190fd5b6001546001600160a01b039081169061136f90881661210b565b6001600160a01b031614156113b55760405162461bcd60e51b81526004018080602001828103825260228152602001806134cd6022913960400191505060405180910390fd5b6000856000815181106113c457fe5b60209081029190910101519050336113e76001600160a01b038316823089612658565b600054611401906001600160a01b03848116911688612886565b60006114166001600160a01b038a1687612518565b6000549091506060906001600160a01b03166338ed173989846114398e8e611a7f565b61144b8f6001600160a01b031661238f565b8b6040518663ffffffff1660e01b81526004018086815260200185815260200180602001846001600160a01b03168152602001838152602001828103825285818151815260200191508051906020019060200280838360005b838110156114bc5781810151838201526020016114a4565b505050509050019650505050505050600060405180830381600087803b1580156114e557600080fd5b505af11580156114f9573d6000803e3d6000fd5b505050506040513d6000823e601f3d908101601f19168201604052602081101561152257600080fd5b8101908080516040519392919084600160201b82111561154157600080fd5b90830190602082018581111561155657600080fd5b82518660208202830111600160201b8211171561157257600080fd5b82525081516020918201928201910280838360005b8381101561159f578181015183820152602001611587565b5050505090500160405250505090506000816001835103815181106115c057fe5b602002602001015190506115e6818c6001600160a01b031661224590919063ffffffff16565b9550610e798b8588846124aa565b6000806116096001600160a01b03871661210b565b6001600160a01b0316141561164f5760405162461bcd60e51b81526004018080602001828103825260298152602001806134a46029913960400191505060405180910390fd5b6000845111611693576040805162461bcd60e51b81526020600482015260186024820152600080516020613373833981519152604482015290519081900360640190fd5b60015484516001600160a01b039091169085906000906116af57fe5b60200260200101516001600160a01b0316146116fc5760405162461bcd60e51b81526004018080602001828103825260308152602001806133436030913960400191505060405180910390fd5b3360006117126001600160a01b03881686612518565b6000549091506060906001600160a01b031663fb3bdb4134846117358c8c611a7f565b6117478d6001600160a01b031661238f565b6040516001600160e01b031960e087901b168152600481018481526001600160a01b0383166044830152606482018d90526080602483019081528451608484015284518e9360a401906020878101910280838360005b838110156117b557818101518382015260200161179d565b50505050905001955050505050506000604051808303818588803b1580156117dc57600080fd5b505af11580156117f0573d6000803e3d6000fd5b50505050506040513d6000823e601f3d908101601f19168201604052602081101561181a57600080fd5b8101908080516040519392919084600160201b82111561183957600080fd5b90830190602082018581111561184e57600080fd5b82518660208202830111600160201b8211171561186a57600080fd5b82525081516020918201928201910280838360005b8381101561189757818101518382015260200161187f565b505050509050016040525050509050806000815181106118b357fe5b6020026020010151935083341115611906576001600160a01b0383166108fc6118dc3487612b4a565b6040518115909202916000818181858888f19350505050158015611904573d6000803e3d6000fd5b505b611912888488856124aa565b505050949350505050565b6001546000906001600160a01b039081169061193a90851661210b565b6001600160a01b03161461197f5760405162461bcd60e51b81526004018080602001828103825260268152602001806134016026913960400191505060405180910390fd5b336119936001600160a01b03851684612518565b9150348211156119d8576040805162461bcd60e51b815260206004820152601c6024820152600080516020613525833981519152604482015290519081900360640190fd5b6119ea846001600160a01b031661238f565b6001600160a01b03166108fc839081150290604051600060405180830381858888f19350505050158015611a22573d6000803e3d6000fd5b5034821015611a6c576001600160a01b0381166108fc611a423485612b4a565b6040518115909202916000818181858888f19350505050158015611a6a573d6000803e3d6000fd5b505b611a78848285856124aa565b5092915050565b6060610b8b6001600160a01b03841683612ba7565b600080855111611ad9576040805162461bcd60e51b81526020600482015260186024820152600080516020613373833981519152604482015290519081900360640190fd5b6001546001600160a01b0390811690611af390881661210b565b6001600160a01b031614611b385760405162461bcd60e51b81526004018080602001828103825260278152602001806135456027913960400191505060405180910390fd5b6000339050600086600081518110611b4c57fe5b60209081029190910101519050611b6e6001600160a01b038216833088612658565b600054611b88906001600160a01b03838116911687612ce5565b6000611b9d6001600160a01b038a1688612518565b6000549091506060906001600160a01b0316634a25d94a8389611bc08e8e611a7f565b611bd28f6001600160a01b031661238f565b8b6040518663ffffffff1660e01b81526004018086815260200185815260200180602001846001600160a01b03168152602001838152602001828103825285818151815260200191508051906020019060200280838360005b83811015611c43578181015183820152602001611c2b565b505050509050019650505050505050600060405180830381600087803b158015611c6c57600080fd5b505af1158015611c80573d6000803e3d6000fd5b505050506040513d6000823e601f3d908101601f191682016040526020811015611ca957600080fd5b8101908080516040519392919084600160201b821115611cc857600080fd5b908301906020820185811115611cdd57600080fd5b82518660208202830111600160201b82111715611cf957600080fd5b82525081516020918201928201910280838360005b83811015611d26578181015183820152602001611d0e565b50505050905001604052505050905080600081518110611d4257fe5b6020026020010151945084871115611d92576000611d608887612b4a565b9050611d766001600160a01b0385168683612dd0565b600054611d90906001600160a01b03868116911683612e22565b505b611d9e8a858a856124aa565b5050505095945050505050565b600080611dc06001600160a01b03881661210b565b6001600160a01b03161415611e065760405162461bcd60e51b81526004018080602001828103825260298152602001806134a46029913960400191505060405180910390fd5b6000855111611e4a576040805162461bcd60e51b81526020600482015260186024820152600080516020613373833981519152604482015290519081900360640190fd5b6001546001600160a01b0390811690611e6490881661210b565b6001600160a01b03161415611eaa5760405162461bcd60e51b81526004018080602001828103825260228152602001806134cd6022913960400191505060405180910390fd5b600085600081518110611eb957fe5b60209081029190910101519050336000611edc6001600160a01b038a1688612518565b9050611ef36001600160a01b038416833089612658565b600054611f0d906001600160a01b03858116911688612ce5565b6000546060906001600160a01b0316638803dbee8389611f2d8e8e611a7f565b611f3f8f6001600160a01b031661238f565b8b6040518663ffffffff1660e01b81526004018086815260200185815260200180602001846001600160a01b03168152602001838152602001828103825285818151815260200191508051906020019060200280838360005b83811015611fb0578181015183820152602001611f98565b505050509050019650505050505050600060405180830381600087803b158015611fd957600080fd5b505af1158015611fed573d6000803e3d6000fd5b505050506040513d6000823e601f3d908101601f19168201604052602081101561201657600080fd5b8101908080516040519392919084600160201b82111561203557600080fd5b90830190602082018581111561204a57600080fd5b82518660208202830111600160201b8211171561206657600080fd5b82525081516020918201928201910280838360005b8381101561209357818101518382015260200161207b565b505050509050016040525050509050806000815181106120af57fe5b60200260200101519450868510156120ff5760006120cd8887612b4a565b90506120e36001600160a01b0386168583612dd0565b6000546120fd906001600160a01b03878116911683612e22565b505b611d9e8a848a856124aa565b60408051600481526024810182526020810180516001600160e01b0316633bf35fd360e11b1781529151815160009384936060936001600160a01b03881693919290918291908083835b602083106121745780518252601f199092019160209182019101612155565b6001836020036101000a038019825116818451168082178552505050505050905001915050600060405180830381855afa9150503d80600081146121d4576040519150601f19603f3d011682016040523d82523d6000602084013e6121d9565b606091505b50915091508180156121eb5750805115155b6122265760405162461bcd60e51b81526004018080602001828103825260278152602001806134276027913960400191505060405180910390fd5b80806020019051602081101561223b57600080fd5b5051949350505050565b60408051602480820184905282518083039091018152604490910182526020810180516001600160e01b0316634cc0764360e11b1781529151815160009384936060936001600160a01b03891693919290918291908083835b602083106122bd5780518252601f19909201916020918201910161229e565b6001836020036101000a038019825116818451168082178552505050505050905001915050600060405180830381855afa9150503d806000811461231d576040519150601f19603f3d011682016040523d82523d6000602084013e612322565b606091505b50915091508180156123345750805115155b61236f5760405162461bcd60e51b81526004018080602001828103825260218152602001806133bc6021913960400191505060405180910390fd5b80806020019051602081101561238457600080fd5b505195945050505050565b60408051600481526024810182526020810180516001600160e01b03166338af3eed60e01b1781529151815160009384936060936001600160a01b03881693919290918291908083835b602083106123f85780518252601f1990920191602091820191016123d9565b6001836020036101000a038019825116818451168082178552505050505050905001915050600060405180830381855afa9150503d8060008114612458576040519150601f19603f3d011682016040523d82523d6000602084013e61245d565b606091505b509150915081801561246f5750805115155b6122265760405162461bcd60e51b81526004018080602001828103825260248152602001806133dd6024913960400191505060405180910390fd5b6124bf6001600160a01b038516848484612ec4565b826001600160a01b0316846001600160a01b03167fbf77fd13a39d14dc0da779342c14105c38d9a5d0c60f2caa22f5fd1d5525416d8484604051808381526020018281526020019250505060405180910390a350505050565b60408051602480820184905282518083039091018152604490910182526020810180516001600160e01b03166307fa648b60e11b1781529151815160009384936060936001600160a01b03891693919290918291908083835b602083106125905780518252601f199092019160209182019101612571565b6001836020036101000a038019825116818451168082178552505050505050905001915050600060405180830381855afa9150503d80600081146125f0576040519150601f19603f3d011682016040523d82523d6000602084013e6125f5565b606091505b50915091508180156126075750805115155b61236f576040805162461bcd60e51b815260206004820181905260248201527f5265736f757263653a2063616c6c206076616c75654f6660206661696c65642e604482015290519081900360640190fd5b604080516001600160a01b0380861660248301528416604482015260648082018490528251808303909101815260849091019091526020810180516001600160e01b03166323b872dd60e01b1790526126b2908590613019565b50505050565b606081516000141561270c5760408051600180825281830190925290602080830190803683370190505090506126ee8584612518565b816000815181106126fb57fe5b60200260200101818152505061287e565b60006127188685612518565b905060606127268785612ba7565b9050856001600160a01b0316631f00ca7483836040518363ffffffff1660e01b81526004018083815260200180602001828103825283818151815260200191508051906020019060200280838360005b8381101561278e578181015183820152602001612776565b50505050905001935050505060006040518083038186803b1580156127b257600080fd5b505afa1580156127c6573d6000803e3d6000fd5b505050506040513d6000823e601f3d908101601f1916820160405260208110156127ef57600080fd5b8101908080516040519392919084600160201b82111561280e57600080fd5b90830190602082018581111561282357600080fd5b82518660208202830111600160201b8211171561283f57600080fd5b82525081516020918201928201910280838360005b8381101561286c578181015183820152602001612854565b50505050905001604052505050925050505b949350505050565b80158061290c575060408051636eb1769f60e11b81523060048201526001600160a01b03848116602483015291519185169163dd62ed3e91604480820192602092909190829003018186803b1580156128de57600080fd5b505afa1580156128f2573d6000803e3d6000fd5b505050506040513d602081101561290857600080fd5b5051155b6129475760405162461bcd60e51b81526004018080602001828103825260368152602001806134ef6036913960400191505060405180910390fd5b604080516001600160a01b038416602482015260448082018490528251808303909101815260649091019091526020810180516001600160e01b031663095ea7b360e01b179052612999908490613019565b505050565b60008151600014156129bb576129b48584612245565b905061287e565b60606129c78684612ba7565b90506060856001600160a01b031663d06ca61f86846040518363ffffffff1660e01b81526004018083815260200180602001828103825283818151815260200191508051906020019060200280838360005b83811015612a31578181015183820152602001612a19565b50505050905001935050505060006040518083038186803b158015612a5557600080fd5b505afa158015612a69573d6000803e3d6000fd5b505050506040513d6000823e601f3d908101601f191682016040526020811015612a9257600080fd5b8101908080516040519392919084600160201b821115612ab157600080fd5b908301906020820185811115612ac657600080fd5b82518660208202830111600160201b82111715612ae257600080fd5b82525081516020918201928201910280838360005b83811015612b0f578181015183820152602001612af7565b505050509050016040525050509050612b3f8782600184510381518110612b3257fe5b6020026020010151612245565b979650505050505050565b600082821115612ba1576040805162461bcd60e51b815260206004820152601e60248201527f536166654d6174683a207375627472616374696f6e206f766572666c6f770000604482015290519081900360640190fd5b50900390565b80516060906001810167ffffffffffffffff81118015612bc657600080fd5b50604051908082528060200260200182016040528015612bf0578160200160208202803683370190505b5091506000612bfe8561210b565b905060005b82811015612caf57816001600160a01b0316858281518110612c2157fe5b60200260200101516001600160a01b03161415612c6f5760405162461bcd60e51b815260040180806020018281038252602c815260200180613478602c913960400191505060405180910390fd5b848181518110612c7b57fe5b6020026020010151848281518110612c8f57fe5b6001600160a01b0390921660209283029190910190910152600101612c03565b5080838381518110612cbd57fe5b60200260200101906001600160a01b031690816001600160a01b031681525050505092915050565b6000612d7b82856001600160a01b031663dd62ed3e30876040518363ffffffff1660e01b815260040180836001600160a01b03168152602001826001600160a01b031681526020019250505060206040518083038186803b158015612d4957600080fd5b505afa158015612d5d573d6000803e3d6000fd5b505050506040513d6020811015612d7357600080fd5b5051906130ca565b604080516001600160a01b038616602482015260448082018490528251808303909101815260649091019091526020810180516001600160e01b031663095ea7b360e01b1790529091506126b2908590613019565b604080516001600160a01b038416602482015260448082018490528251808303909101815260649091019091526020810180516001600160e01b031663a9059cbb60e01b179052612999908490613019565b6000612d7b826040518060600160405280602981526020016133936029913960408051636eb1769f60e11b81523060048201526001600160a01b03888116602483015291519189169163dd62ed3e91604480820192602092909190829003018186803b158015612e9157600080fd5b505afa158015612ea5573d6000803e3d6000fd5b505050506040513d6020811015612ebb57600080fd5b50519190613124565b604080516001600160a01b03858116602483015260448201859052606480830185905283518084039091018152608490920183526020820180516001600160e01b031663a59ac6dd60e01b17815292518251600094606094938a169392918291908083835b60208310612f485780518252601f199092019160209182019101612f29565b6001836020036101000a0380198251168184511680821785525050505050509050019150506000604051808303816000865af19150503d8060008114612faa576040519150601f19603f3d011682016040523d82523d6000602084013e612faf565b606091505b5091509150818015612fc057508051155b613011576040805162461bcd60e51b815260206004820152601760248201527f5265736f757263653a206062757960206661696c65642e000000000000000000604482015290519081900360640190fd5b505050505050565b606061306e826040518060400160405280602081526020017f5361666545524332303a206c6f772d6c6576656c2063616c6c206661696c6564815250856001600160a01b03166131bb9092919063ffffffff16565b8051909150156129995780806020019051602081101561308d57600080fd5b50516129995760405162461bcd60e51b815260040180806020018281038252602a81526020018061344e602a913960400191505060405180910390fd5b600082820183811015610b8b576040805162461bcd60e51b815260206004820152601b60248201527f536166654d6174683a206164646974696f6e206f766572666c6f770000000000604482015290519081900360640190fd5b600081848411156131b35760405162461bcd60e51b81526004018080602001828103825283818151815260200191508051906020019080838360005b83811015613178578181015183820152602001613160565b50505050905090810190601f1680156131a55780820380516001836020036101000a031916815260200191505b509250505060405180910390fd5b505050900390565b6060610b888484600085856131cf856132d6565b613220576040805162461bcd60e51b815260206004820152601d60248201527f416464726573733a2063616c6c20746f206e6f6e2d636f6e7472616374000000604482015290519081900360640190fd5b60006060866001600160a01b031685876040518082805190602001908083835b6020831061325f5780518252601f199092019160209182019101613240565b6001836020036101000a03801982511681845116808217855250505050505090500191505060006040518083038185875af1925050503d80600081146132c1576040519150601f19603f3d011682016040523d82523d6000602084013e6132c6565b606091505b5091509150612b3f8282866132dc565b3b151590565b606083156132eb575081610b8b565b8251156132fb5782518084602001fd5b60405162461bcd60e51b815260206004820181815284516024840152845185939192839260440191908501908083836000831561317857818101518382015260200161316056fe5061796d656e743a2057455448206e6f7420746865206669727374206164647265737320696e2070726520706174682e5061796d656e743a20656d7074792070726520706174682e00000000000000005361666545524332303a2064656372656173656420616c6c6f77616e63652062656c6f77207a65726f5265736f757263653a2063616c6c2060616d6f756e744f6660206661696c65642e5265736f757263653a2063616c6c206062656e656669636961727960206661696c65642e5061796d656e743a207265736f75726365206e6f742076616c7561746564206279204554482e5265736f757263653a2063616c6c206076616c756174696f6e546f6b656e60206661696c65642e5361666545524332303a204552433230206f7065726174696f6e20646964206e6f7420737563636565645265736f757263653a2076616c756174696f6e546f6b656e2065787369747320696e2070726520706174682e5061796d656e743a207265736f7572636520686173206e6f2076616c756174696f6e20746f6b656e2e5061796d656e743a207265736f757263652076616c7561746564206279204554482e5361666545524332303a20617070726f76652066726f6d206e6f6e2d7a65726f20746f206e6f6e2d7a65726f20616c6c6f77616e63655061796d656e743a20696e73756666696369656e742076616c75652e000000005061796d656e743a207265736f75726365206e6f742076616c756174656420627920574554482ea26469706673582212200a42d1080c3dbfa02bd8445e5c26086a2be732e96ee7941abf735a94943ea4f164736f6c63430007030033"
}