{
  "address": "0xe25Eb07248eAB8B7336011FCe091722DC515c48c",
  "abi": [
    {
      "inputs": [
        {
          "internalType": "contract ICheckpointManager",
          "name": "_checkpointManager",
          "type": "address"
        },
        {
          "internalType": "contract IStateSender",
          "name": "_root",
          "type": "address"
        }
      ],
      "stateMutability": "nonpayable",
      "type": "constructor"
    },
    {
      "anonymous": false,
      "inputs": [
        {
          "indexed": true,
          "internalType": "address",
          "name": "previousOwner",
          "type": "address"
        },
        {
          "indexed": true,
          "internalType": "address",
          "name": "newOwner",
          "type": "address"
        }
      ],
      "name": "OwnershipTransferred",
      "type": "event"
    },
    {
      "inputs": [],
      "name": "SEND_MESSAGE_EVENT_SIG",
      "outputs": [
        {
          "internalType": "bytes32",
          "name": "",
          "type": "bytes32"
        }
      ],
      "stateMutability": "view",
      "type": "function"
    },
    {
      "inputs": [],
      "name": "checkpointManager",
      "outputs": [
        {
          "internalType": "contract ICheckpointManager",
          "name": "",
          "type": "address"
        }
      ],
      "stateMutability": "view",
      "type": "function"
    },
    {
      "inputs": [],
      "name": "childChannel",
      "outputs": [
        {
          "internalType": "address",
          "name": "",
          "type": "address"
        }
      ],
      "stateMutability": "view",
      "type": "function"
    },
    {
      "inputs": [],
      "name": "owner",
      "outputs": [
        {
          "internalType": "address",
          "name": "",
          "type": "address"
        }
      ],
      "stateMutability": "view",
      "type": "function"
    },
    {
      "inputs": [
        {
          "internalType": "address",
          "name": "permitter",
          "type": "address"
        },
        {
          "internalType": "bool",
          "name": "isPermit",
          "type": "bool"
        }
      ],
      "name": "permit",
      "outputs": [],
      "stateMutability": "nonpayable",
      "type": "function"
    },
    {
      "inputs": [
        {
          "internalType": "address",
          "name": "",
          "type": "address"
        }
      ],
      "name": "permits",
      "outputs": [
        {
          "internalType": "bool",
          "name": "",
          "type": "bool"
        }
      ],
      "stateMutability": "view",
      "type": "function"
    },
    {
      "inputs": [
        {
          "internalType": "bytes32",
          "name": "",
          "type": "bytes32"
        }
      ],
      "name": "processedExits",
      "outputs": [
        {
          "internalType": "bool",
          "name": "",
          "type": "bool"
        }
      ],
      "stateMutability": "view",
      "type": "function"
    },
    {
      "inputs": [
        {
          "internalType": "bytes",
          "name": "inputData",
          "type": "bytes"
        }
      ],
      "name": "receiveMessage",
      "outputs": [],
      "stateMutability": "nonpayable",
      "type": "function"
    },
    {
      "inputs": [],
      "name": "renounceOwnership",
      "outputs": [],
      "stateMutability": "nonpayable",
      "type": "function"
    },
    {
      "inputs": [],
      "name": "root",
      "outputs": [
        {
          "internalType": "contract IStateSender",
          "name": "",
          "type": "address"
        }
      ],
      "stateMutability": "view",
      "type": "function"
    },
    {
      "inputs": [
        {
          "internalType": "bytes",
          "name": "message",
          "type": "bytes"
        }
      ],
      "name": "sendMessageToChild",
      "outputs": [],
      "stateMutability": "nonpayable",
      "type": "function"
    },
    {
      "inputs": [
        {
          "internalType": "address",
          "name": "_childChannel",
          "type": "address"
        }
      ],
      "name": "setChildChannel",
      "outputs": [],
      "stateMutability": "nonpayable",
      "type": "function"
    },
    {
      "inputs": [
        {
          "internalType": "address",
          "name": "newOwner",
          "type": "address"
        }
      ],
      "name": "transferOwnership",
      "outputs": [],
      "stateMutability": "nonpayable",
      "type": "function"
    }
  ],
  "transactionHash": "0xafd809d805de14dc4bcfdae250344e8ac8663f7ab567a6e04d013e99b7de0413",
  "args": [
    "0x2890bA17EfE978480615e330ecB65333b880928e",
    "0x3d1d3E34f7fB6D26245E6640E1c50710eFFf15bA"
  ],
  "bytecode": "0x608060405234801561001057600080fd5b506040516122d03803806122d08339818101604052604081101561003357600080fd5b50805160209091015160006100466100c1565b600080546001600160a01b0319166001600160a01b0383169081178255604051929350917f8be0079c531659141344cd1fd0a4f28419497f9722a3daafe3b4186f6b6457e0908290a350600380546001600160a01b039384166001600160a01b031991821617909155600280549290931691161790556100c5565b3390565b6121fc806100d46000396000f3fe608060405234801561001057600080fd5b50600436106100ce5760003560e01c80638da5cb5b1161008c578063f186c67f11610066578063f186c67f1461024c578063f2fde38b1461027a578063f953cec7146102a0578063ff3a2d3f14610344576100ce565b80638da5cb5b14610218578063c0857ba01461023c578063ebf0c71714610244576100ce565b80628009a3146100d35780630e387de61461010d5780632c76b3c2146101275780634c09e6e81461014f578063607f2d42146101f3578063715018a614610210575b600080fd5b6100f9600480360360208110156100e957600080fd5b50356001600160a01b031661034c565b604080519115158252519081900360200190f35b610115610361565b60408051918252519081900360200190f35b61014d6004803603602081101561013d57600080fd5b50356001600160a01b0316610385565b005b61014d6004803603602081101561016557600080fd5b810190602081018135600160201b81111561017f57600080fd5b82018360208201111561019157600080fd5b803590602001918460018302840111600160201b831117156101b257600080fd5b91908080601f016020809104026020016040519081016040528093929190818152602001838380828437600092019190915250929550610409945050505050565b6100f96004803603602081101561020957600080fd5b5035610582565b61014d610597565b610220610643565b604080516001600160a01b039092168252519081900360200190f35b610220610652565b610220610661565b61014d6004803603604081101561026257600080fd5b506001600160a01b0381351690602001351515610670565b61014d6004803603602081101561029057600080fd5b50356001600160a01b03166106fd565b61014d600480360360208110156102b657600080fd5b810190602081018135600160201b8111156102d057600080fd5b8201836020820111156102e257600080fd5b803590602001918460018302840111600160201b8311171561030357600080fd5b91908080601f0160208091040260200160405190810160405280939291908181526020018383808284376000920191909152509295506107ff945050505050565b61022061087b565b60016020526000908152604090205460ff1681565b7f8c5261668696ce22758910d05bab8f186d6eb247ceac2af2e82c7dc17669b03681565b61038d61088a565b6001600160a01b031661039e610643565b6001600160a01b0316146103e7576040805162461bcd60e51b815260206004820181905260248201526000805160206120e6833981519152604482015290519081900360640190fd5b600480546001600160a01b0319166001600160a01b0392909216919091179055565b6004546001600160a01b031661045f576040805162461bcd60e51b815260206004820152601660248201527521b434b63221b430b73732b6103932b8bab4b932b21760511b604482015290519081900360640190fd5b3360009081526001602052604090205460ff166104ad5760405162461bcd60e51b815260040180806020018281038252602481526020018061215b6024913960400191505060405180910390fd5b600254600480546040805163b472047760e01b81526001600160a01b0392831693810184815260248201928352865160448301528651939095169463b472047794938793919260640190602085019080838360005b8381101561051a578181015183820152602001610502565b50505050905090810190601f1680156105475780820380516001836020036101000a031916815260200191505b509350505050600060405180830381600087803b15801561056757600080fd5b505af115801561057b573d6000803e3d6000fd5b5050505050565b60056020526000908152604090205460ff1681565b61059f61088a565b6001600160a01b03166105b0610643565b6001600160a01b0316146105f9576040805162461bcd60e51b815260206004820181905260248201526000805160206120e6833981519152604482015290519081900360640190fd5b600080546040516001600160a01b03909116907f8be0079c531659141344cd1fd0a4f28419497f9722a3daafe3b4186f6b6457e0908390a3600080546001600160a01b0319169055565b6000546001600160a01b031690565b6003546001600160a01b031681565b6002546001600160a01b031681565b61067861088a565b6001600160a01b0316610689610643565b6001600160a01b0316146106d2576040805162461bcd60e51b815260206004820181905260248201526000805160206120e6833981519152604482015290519081900360640190fd5b6001600160a01b03919091166000908152600160205260409020805460ff1916911515919091179055565b61070561088a565b6001600160a01b0316610716610643565b6001600160a01b03161461075f576040805162461bcd60e51b815260206004820181905260248201526000805160206120e6833981519152604482015290519081900360640190fd5b6001600160a01b0381166107a45760405162461bcd60e51b8152600401808060200182810382526026815260200180611fdf6026913960400191505060405180910390fd5b600080546040516001600160a01b03808516939216917f8be0079c531659141344cd1fd0a4f28419497f9722a3daafe3b4186f6b6457e091a3600080546001600160a01b0319166001600160a01b0392909216919091179055565b61080761088a565b6001600160a01b0316610818610643565b6001600160a01b031614610861576040805162461bcd60e51b815260206004820181905260248201526000805160206120e6833981519152604482015290519081900360640190fd5b606061086c8261088e565b905061087781610d2f565b5050565b6004546001600160a01b031681565b3390565b6060806108a261089d84610e23565b610e9e565b905060006108c3826002815181106108b657fe5b6020026020010151611020565b6108e86108e3846008815181106108d657fe5b6020026020010151611168565b611232565b6108f8846009815181106108b657fe5b6040516020018084815260200183805190602001908083835b602083106109305780518252601f199092019160209182019101610911565b51815160209384036101000a6000190180199092169116179052920193845250604080518085038152938201815283519382019390932060008181526005909252929020549194505060ff161591506109bc90505760405162461bcd60e51b81526004018080602001828103825260238152602001806120c36023913960400191505060405180910390fd5b6000818152600560205260409020805460ff1916600117905581516060906109f89061089d906109f390869060069081106108d657fe5b610e23565b9050610a02611f9f565b610a1f82600381518110610a1257fe5b6020026020010151610e9e565b610a2f856009815181106108b657fe5b81518110610a3957fe5b602002602001015190506060610a4e82610e9e565b9050610a6d81600081518110610a6057fe5b60200260200101516113a6565b6004546001600160a01b03908116911614610ab95760405162461bcd60e51b815260040180806020018281038252602581526020018061209e6025913960400191505060405180910390fd5b610b01610acc866006815181106108d657fe5b610adc876008815181106108d657fe5b610aec886007815181106108d657fe5b610afc896005815181106108b657fe5b611436565b610b3c5760405162461bcd60e51b81526004018080602001828103825260228152602001806120056022913960400191505060405180910390fd5b610baa610b4f866002815181106108b657fe5b610b5f876003815181106108b657fe5b610b6f886004815181106108b657fe5b60001b610b82896005815181106108b657fe5b60001b610b958a6000815181106108b657fe5b610ba58b6001815181106108d657fe5b61167d565b506060610bbd82600181518110610a1257fe5b90507f8c5261668696ce22758910d05bab8f186d6eb247ceac2af2e82c7dc17669b03660001b610bf3826000815181106108b657fe5b14610c45576040805162461bcd60e51b815260206004820152601e60248201527f726f6f746368616e6e656c3a20494e56414c49445f5349474e41545552450000604482015290519081900360640190fd5b6060610c57836002815181106108d657fe5b90506060818060200190516020811015610c7057600080fd5b8101908080516040519392919084600160201b821115610c8f57600080fd5b908301906020820185811115610ca457600080fd5b8251600160201b811182820188101715610cbd57600080fd5b82525081516020918201929091019080838360005b83811015610cea578181015183820152602001610cd2565b50505050905090810190601f168015610d175780820380516001836020036101000a031916815260200191505b5060405250919a50505050505050505050505b919050565b60006060828060200190516040811015610d4857600080fd5b815160208301805160405192949293830192919084600160201b821115610d6e57600080fd5b908301906020820185811115610d8357600080fd5b8251600160201b811182820188101715610d9c57600080fd5b82525081516020918201929091019080838360005b83811015610dc9578181015183820152602001610db1565b50505050905090810190601f168015610df65780820380516001836020036101000a031916815260200191505b5060405250505091509150610e1d81836001600160a01b03166117ef90919063ffffffff16565b50505050565b610e2b611f9f565b6000825111610e81576040805162461bcd60e51b815260206004820152601f60248201527f524c505265616465723a20494e56414c49445f42595445535f4c454e47544800604482015290519081900360640190fd5b506040805180820190915281518152602082810190820152919050565b6060610ea982611838565b610efa576040805162461bcd60e51b815260206004820152601860248201527f524c505265616465723a204954454d5f4e4f545f4c4953540000000000000000604482015290519081900360640190fd5b6000610f0583611864565b905060608167ffffffffffffffff81118015610f2057600080fd5b50604051908082528060200260200182016040528015610f5a57816020015b610f47611f9f565b815260200190600190039081610f3f5790505b5090506000610f6c85602001516118f0565b85519091508114610fae5760405162461bcd60e51b81526004018080602001828103825260278152602001806121066027913960400191505060405180910390fd5b6000610fbd8660200151611989565b60208701510190506000805b8581101561101457610fda836118f0565b9150604051806040016040528083815260200184815250858281518110610ffd57fe5b602090810291909101015291810191600101610fc9565b50929695505050505050565b600061102b82611838565b1561107d576040805162461bcd60e51b815260206004820181905260248201527f524c505265616465723a204445434f44494e475f4c4953545f41535f55494e54604482015290519081900360640190fd5b8151602110156110d4576040805162461bcd60e51b815260206004820152601e60248201527f524c505265616465723a20494e56414c49445f55494e545f4c454e4754480000604482015290519081900360640190fd5b60006110e383602001516118f0565b835190915081146111255760405162461bcd60e51b815260040180806020018281038252602781526020018061217f6027913960400191505060405180910390fd5b60006111348460200151611989565b8451602080870151830180519394509184900392919083101561115e57826020036101000a820491505b5095945050505050565b6060600061117983602001516118f0565b835190915081146111bb5760405162461bcd60e51b81526004018080602001828103825260288152602001806120276028913960400191505060405180910390fd5b60006111ca8460200151611989565b845190915081900360608167ffffffffffffffff811180156111eb57600080fd5b506040519080825280601f01601f191660200182016040528015611216576020820181803683370190505b509050600081602001905061115e8488602001510182856119ec565b604080516020810190915260008152815160609190156113a05760008061125a600086611a37565b60f81c9050600181148061127157508060ff166003145b1561130057600185516002020367ffffffffffffffff8111801561129457600080fd5b506040519080825280601f01601f1916602001820160405280156112bf576020820181803683370190505b50925060006112cf600187611a37565b905080846000815181106112df57fe5b60200101906001600160f81b031916908160001a9053506001925050611351565b600285516002020367ffffffffffffffff8111801561131e57600080fd5b506040519080825280601f01601f191660200182016040528015611349576020820181803683370190505b509250600091505b60ff82165b835181101561139c576113718360ff16820360020187611a37565b84828151811061137d57fe5b60200101906001600160f81b031916908160001a905350600101611356565b5050505b92915050565b60006113b182611838565b156113ed5760405162461bcd60e51b815260040180806020018281038252602381526020018061207b6023913960400191505060405180910390fd5b815160151461142d5760405162461bcd60e51b81526004018080602001828103825260218152602001806121a66021913960400191505060405180910390fd5b6113a082611020565b6000611440611f9f565b61144984610e23565b9050606061145682610e9e565b9050606080856000826114688b611232565b9050805160001415611484576000975050505050505050611675565b60005b865181101561166c5781518311156114aa57600098505050505050505050611675565b6114c68782815181106114b957fe5b6020026020010151611a94565b9550858051906020012084146114e757600098505050505050505050611675565b6114f6878281518110610a1257fe5b94508451601114156115b3578151831415611552578c80519060200120611523866010815181106108d657fe5b80519060200120141561154157600198505050505050505050611675565b600098505050505050505050611675565b600082848151811061156057fe5b016020015160f81c905060108111156115855760009950505050505050505050611675565b6115a4868260ff168151811061159757fe5b6020026020010151611afb565b94505060019290920191611664565b8451600214156115415760006115d96115d2876000815181106108d657fe5b8486611b9a565b90508251818501141561162f578d805190602001206115fe876001815181106108d657fe5b80519060200120141561161d5760019950505050505050505050611675565b60009950505050505050505050611675565b806116465760009950505050505050505050611675565b808401935061165b8660018151811061159757fe5b94506116649050565b600101611487565b50505050505050505b949350505050565b600354604080516320a9cea560e11b81526004810185905290516000928392839283926001600160a01b0316916341539d4a9160248083019260a0929190829003018186803b1580156116cf57600080fd5b505afa1580156116e3573d6000803e3d6000fd5b505050506040513d60a08110156116f957600080fd5b8101908080519060200190929190805190602001909291908051906020019092919080519060200190929190805190602001909291905050505093505092509250611791828b0384878d8d8d8d6040516020018085815260200184815260200183815260200182815260200194505050505060405160208183030381529060405280519060200120611c79909392919063ffffffff16565b6117e2576040805162461bcd60e51b815260206004820152601b60248201527f726f6f746368616e6e656c3a20494e56414c49445f4845414445520000000000604482015290519081900360640190fd5b9998505050505050505050565b606061183183836040518060400160405280601e81526020017f416464726573733a206c6f772d6c6576656c2063616c6c206661696c65640000815250611dcf565b9392505050565b6020810151805160009190821a9060c082101561185a57600092505050610d2a565b5060019392505050565b60008060009050600061187a8460200151611989565b602085015185519181019250015b808210156118e757611899826118f0565b82019150808211156118dc5760405162461bcd60e51b815260040180806020018281038252602c81526020018061204f602c913960400191505060405180910390fd5b600190920191611888565b50909392505050565b80516000908190811a608081101561190b5760019150611982565b60b881101561192057607e1981019150611982565b60c081101561194d5760b78103600185019450806020036101000a85510460018201810193505050611982565b60f88110156119625760be1981019150611982565b60f78103600185019450806020036101000a855104600182018101935050505b5092915050565b8051600090811a60808110156119a3576000915050610d2a565b60b88110806119be575060c081108015906119be575060f881105b156119cd576001915050610d2a565b60c08110156119e15760b519019050610d2a565b60f519019050610d2a565b806119f657611a32565b5b60208110611a16578251825260209283019290910190601f19016119f7565b8251825160208390036101000a60001901801990921691161782525b505050565b60006002830615611a68576010826002850481518110611a5357fe5b016020015160f81c81611a6257fe5b06611a8a565b6010826002850481518110611a7957fe5b016020015160f81c81611a8857fe5b045b60f81b9392505050565b606080826000015167ffffffffffffffff81118015611ab257600080fd5b506040519080825280601f01601f191660200182016040528015611add576020820181803683370190505b509050600081602001905061198284602001518286600001516119ec565b600080611b0b83602001516118f0565b83519091508114611b4d5760405162461bcd60e51b815260040180806020018281038252602e81526020018061212d602e913960400191505060405180910390fd5b8251602114611b8d5760405162461bcd60e51b8152600401808060200182810382526025815260200180611fba6025913960400191505060405180910390fd5b5050602001516001015190565b6000806060611ba886611232565b90506060815167ffffffffffffffff81118015611bc457600080fd5b506040519080825280601f01601f191660200182016040528015611bef576020820181803683370190505b509050845b82518601811015611c49576000878281518110611c0d57fe5b602001015160f81c60f81b9050808388840381518110611c2957fe5b60200101906001600160f81b031916908160001a90535050600101611bf4565b50808051906020012082805190602001201415611c695781519250611c6e565b600092505b509095945050505050565b60006020825181611c8657fe5b0615611cd0576040805162461bcd60e51b8152602060048201526014602482015273092dcecc2d8d2c840e0e4dedecc40d8cadccee8d60631b604482015290519081900360640190fd5b60006020835181611cdd57fe5b0490508060020a8510611d2f576040805162461bcd60e51b81526020600482015260156024820152744c65616620696e64657820697320746f6f2062696760581b604482015290519081900360640190fd5b60008660205b85518111611dc15785810151925060028806611d815781836040516020018083815260200182815260200192505050604051602081830303815290604052805190602001209150611db3565b828260405160200180838152602001828152602001925050506040516020818303038152906040528051906020012091505b600288049750602001611d35565b509094149695505050505050565b6060611675848460008585611de385611ef5565b611e34576040805162461bcd60e51b815260206004820152601d60248201527f416464726573733a2063616c6c20746f206e6f6e2d636f6e7472616374000000604482015290519081900360640190fd5b60006060866001600160a01b031685876040518082805190602001908083835b60208310611e735780518252601f199092019160209182019101611e54565b6001836020036101000a03801982511681845116808217855250505050505090500191505060006040518083038185875af1925050503d8060008114611ed5576040519150601f19603f3d011682016040523d82523d6000602084013e611eda565b606091505b5091509150611eea828286611efb565b979650505050505050565b3b151590565b60608315611f0a575081611831565b825115611f1a5782518084602001fd5b8160405162461bcd60e51b81526004018080602001828103825283818151815260200191508051906020019080838360005b83811015611f64578181015183820152602001611f4c565b50505050905090810190601f168015611f915780820380516001836020036101000a031916815260200191505b509250505060405180910390fd5b60405180604001604052806000815260200160008152509056fe524c505265616465723a20494e56414c49445f55494e545f5354524943545f4c454e4754484f776e61626c653a206e6577206f776e657220697320746865207a65726f2061646472657373726f6f746368616e6e656c3a20494e56414c49445f524543454950545f50524f4f46524c505265616465723a2042595445535f4445434f4445445f4c454e4754485f4d49534d41544348524c505265616465723a204e554d5f4954454d535f4445434f4445445f4c454e4754485f4d49534d41544348524c505265616465723a204445434f44494e475f4c4953545f41535f41444452455353726f6f746368616e6e656c3a20494e56414c49445f46585f4348494c445f6368616e6e656c726f6f746368616e6e656c3a20455849545f414c52454144595f50524f4345535345444f776e61626c653a2063616c6c6572206973206e6f7420746865206f776e6572524c505265616465723a204c4953545f4445434f4445445f4c454e4754485f4d49534d41544348524c505265616465723a2055494e545f5354524943545f4445434f4445445f4c454e4754485f4d49534d415443485065726d697461626c653a2063616c6c6572206973206e6f74207065726d69747465642e524c505265616465723a2055494e545f4445434f4445445f4c454e4754485f4d49534d41544348524c505265616465723a20494e56414c49445f414444524553535f4c454e475448a26469706673582212201e3dcd499503961fcdbf1529970589d71bf9b519f5aac3a71210a6e52b74088f64736f6c63430007030033"
}