{
  "address": "0xE916C6Da059175A8fc685E29B6D0683C9C72D94d",
  "abi": [
    {
      "inputs": [
        {
          "internalType": "address",
          "name": "owner",
          "type": "address"
        },
        {
          "internalType": "address",
          "name": "_WETH",
          "type": "address"
        },
        {
          "internalType": "uint256",
          "name": "_price",
          "type": "uint256"
        },
        {
          "internalType": "address",
          "name": "_beneficiary",
          "type": "address"
        }
      ],
      "stateMutability": "nonpayable",
      "type": "constructor"
    },
    {
      "anonymous": false,
      "inputs": [
        {
          "indexed": true,
          "internalType": "address",
          "name": "buyer",
          "type": "address"
        },
        {
          "indexed": false,
          "internalType": "uint256",
          "name": "amount",
          "type": "uint256"
        },
        {
          "indexed": false,
          "internalType": "uint256",
          "name": "value",
          "type": "uint256"
        }
      ],
      "name": "Bought",
      "type": "event"
    },
    {
      "anonymous": false,
      "inputs": [
        {
          "indexed": true,
          "internalType": "address",
          "name": "previousOwner",
          "type": "address"
        },
        {
          "indexed": true,
          "internalType": "address",
          "name": "newOwner",
          "type": "address"
        }
      ],
      "name": "OwnershipTransferred",
      "type": "event"
    },
    {
      "anonymous": false,
      "inputs": [
        {
          "indexed": true,
          "internalType": "address",
          "name": "buyer",
          "type": "address"
        },
        {
          "indexed": false,
          "internalType": "uint256",
          "name": "amount",
          "type": "uint256"
        }
      ],
      "name": "Spent",
      "type": "event"
    },
    {
      "inputs": [
        {
          "internalType": "address",
          "name": "",
          "type": "address"
        }
      ],
      "name": "balances",
      "outputs": [
        {
          "internalType": "uint256",
          "name": "",
          "type": "uint256"
        }
      ],
      "stateMutability": "view",
      "type": "function"
    },
    {
      "inputs": [],
      "name": "beneficiary",
      "outputs": [
        {
          "internalType": "address",
          "name": "",
          "type": "address"
        }
      ],
      "stateMutability": "view",
      "type": "function"
    },
    {
      "inputs": [
        {
          "internalType": "address",
          "name": "buyer",
          "type": "address"
        },
        {
          "internalType": "uint256",
          "name": "amount",
          "type": "uint256"
        },
        {
          "internalType": "uint256",
          "name": "value",
          "type": "uint256"
        },
        {
          "internalType": "bytes",
          "name": "data",
          "type": "bytes"
        }
      ],
      "name": "buy",
      "outputs": [],
      "stateMutability": "nonpayable",
      "type": "function"
    },
    {
      "inputs": [
        {
          "internalType": "uint256",
          "name": "value",
          "type": "uint256"
        }
      ],
      "name": "getAmount",
      "outputs": [
        {
          "internalType": "uint256",
          "name": "",
          "type": "uint256"
        }
      ],
      "stateMutability": "view",
      "type": "function"
    },
    {
      "inputs": [
        {
          "internalType": "uint256",
          "name": "amount",
          "type": "uint256"
        }
      ],
      "name": "getValue",
      "outputs": [
        {
          "internalType": "uint256",
          "name": "",
          "type": "uint256"
        }
      ],
      "stateMutability": "view",
      "type": "function"
    },
    {
      "inputs": [],
      "name": "owner",
      "outputs": [
        {
          "internalType": "address",
          "name": "",
          "type": "address"
        }
      ],
      "stateMutability": "view",
      "type": "function"
    },
    {
      "inputs": [
        {
          "internalType": "address",
          "name": "permitter",
          "type": "address"
        },
        {
          "internalType": "bool",
          "name": "isPermit",
          "type": "bool"
        }
      ],
      "name": "permit",
      "outputs": [],
      "stateMutability": "nonpayable",
      "type": "function"
    },
    {
      "inputs": [
        {
          "internalType": "address",
          "name": "",
          "type": "address"
        }
      ],
      "name": "permits",
      "outputs": [
        {
          "internalType": "bool",
          "name": "",
          "type": "bool"
        }
      ],
      "stateMutability": "view",
      "type": "function"
    },
    {
      "inputs": [],
      "name": "price",
      "outputs": [
        {
          "internalType": "uint256",
          "name": "",
          "type": "uint256"
        }
      ],
      "stateMutability": "view",
      "type": "function"
    },
    {
      "inputs": [],
      "name": "renounceOwnership",
      "outputs": [],
      "stateMutability": "nonpayable",
      "type": "function"
    },
    {
      "inputs": [
        {
          "internalType": "uint256",
          "name": "_price",
          "type": "uint256"
        }
      ],
      "name": "setPrice",
      "outputs": [],
      "stateMutability": "nonpayable",
      "type": "function"
    },
    {
      "inputs": [
        {
          "internalType": "uint256",
          "name": "key",
          "type": "uint256"
        },
        {
          "internalType": "bytes",
          "name": "value",
          "type": "bytes"
        }
      ],
      "name": "setSlot",
      "outputs": [],
      "stateMutability": "nonpayable",
      "type": "function"
    },
    {
      "inputs": [
        {
          "internalType": "uint256",
          "name": "",
          "type": "uint256"
        }
      ],
      "name": "slots",
      "outputs": [
        {
          "internalType": "bytes",
          "name": "",
          "type": "bytes"
        }
      ],
      "stateMutability": "view",
      "type": "function"
    },
    {
      "inputs": [
        {
          "internalType": "address",
          "name": "buyer",
          "type": "address"
        },
        {
          "internalType": "uint256",
          "name": "amount",
          "type": "uint256"
        }
      ],
      "name": "spend",
      "outputs": [],
      "stateMutability": "nonpayable",
      "type": "function"
    },
    {
      "inputs": [
        {
          "internalType": "address",
          "name": "newOwner",
          "type": "address"
        }
      ],
      "name": "transferOwnership",
      "outputs": [],
      "stateMutability": "nonpayable",
      "type": "function"
    },
    {
      "inputs": [],
      "name": "valuationToken",
      "outputs": [
        {
          "internalType": "address",
          "name": "",
          "type": "address"
        }
      ],
      "stateMutability": "view",
      "type": "function"
    }
  ],
  "transactionHash": "0x060e2fa1f38934e4f9b569e8af7cf659ab1ecdae681f4b7cf882c8988202a86d",
  "args": [
    "0xa995AE28b9cFf206C3971D1887cc934FC48e3a0F",
    "0xB4FBF271143F4FBf7B91A5ded31805e42b2208d6",
    1,
    "0x4023C5cE4f334971E031B6536E610500b3FcaDb5"
  ],
  "bytecode": "0x608060405234801561001057600080fd5b506040516110093803806110098339818101604052608081101561003357600080fd5b508051602082015160408301516060909301519192909160006100546100cd565b600080546001600160a01b0319166001600160a01b038316908117825560405192935091600080516020610fe9833981519152908290a350610095846100d1565b600280546001600160a01b039485166001600160a01b03199182161790915560039290925560048054919093169116179055506101e2565b3390565b6100d96100cd565b6001600160a01b03166100ea6101d3565b6001600160a01b031614610145576040805162461bcd60e51b815260206004820181905260248201527f4f776e61626c653a2063616c6c6572206973206e6f7420746865206f776e6572604482015290519081900360640190fd5b6001600160a01b03811661018a5760405162461bcd60e51b8152600401808060200182810382526026815260200180610fc36026913960400191505060405180910390fd5b600080546040516001600160a01b0380851693921691600080516020610fe983398151915291a3600080546001600160a01b0319166001600160a01b0392909216919091179055565b6000546001600160a01b031690565b610dd2806101f16000396000f3fe608060405234801561001057600080fd5b50600436106100ff5760003560e01c80638da5cb5b11610097578063af7d6ca311610066578063af7d6ca314610367578063b004a46e14610393578063f186c67f14610440578063f2fde38b1461046e576100ff565b80638da5cb5b1461031d57806391b7f5ed146103255780639980ec8614610342578063a035b1fe1461035f576100ff565b806338af3eed116100d357806338af3eed146102255780636c02557214610249578063715018a61461030d57806377e6bfa614610315576100ff565b80628009a3146101045780630ff4c9161461013e57806327e235e31461016d578063387dd9e914610193575b600080fd5b61012a6004803603602081101561011a57600080fd5b50356001600160a01b0316610494565b604080519115158252519081900360200190f35b61015b6004803603602081101561015457600080fd5b50356104a9565b60408051918252519081900360200190f35b61015b6004803603602081101561018357600080fd5b50356001600160a01b03166104c6565b6101b0600480360360208110156101a957600080fd5b50356104d8565b6040805160208082528351818301528351919283929083019185019080838360005b838110156101ea5781810151838201526020016101d2565b50505050905090810190601f1680156102175780820380516001836020036101000a031916815260200191505b509250505060405180910390f35b61022d610573565b604080516001600160a01b039092168252519081900360200190f35b61030b6004803603608081101561025f57600080fd5b6001600160a01b03823516916020810135916040820135919081019060808101606082013564010000000081111561029657600080fd5b8201836020820111156102a857600080fd5b803590602001918460018302840111640100000000831117156102ca57600080fd5b91908080601f016020809104026020016040519081016040528093929190818152602001838380828437600092019190915250929550610582945050505050565b005b61030b610653565b61022d6106ff565b61022d61070e565b61030b6004803603602081101561033b57600080fd5b503561071d565b61015b6004803603602081101561035857600080fd5b5035610784565b61015b61079b565b61030b6004803603604081101561037d57600080fd5b506001600160a01b0381351690602001356107a1565b61030b600480360360408110156103a957600080fd5b813591908101906040810160208201356401000000008111156103cb57600080fd5b8201836020820111156103dd57600080fd5b803590602001918460018302840111640100000000831117156103ff57600080fd5b91908080601f0160208091040260200160405190810160405280939291908181526020018383808284376000920191909152509295506108bf945050505050565b61030b6004803603604081101561045657600080fd5b506001600160a01b0381351690602001351515610945565b61030b6004803603602081101561048457600080fd5b50356001600160a01b03166109d2565b60016020526000908152604090205460ff1681565b60006104c060035483610ad490919063ffffffff16565b92915050565b60056020526000908152604090205481565b60066020908152600091825260409182902080548351601f60026000196101006001861615020190931692909204918201849004840281018401909452808452909183018282801561056b5780601f106105405761010080835404028352916020019161056b565b820191906000526020600020905b81548152906001019060200180831161054e57829003601f168201915b505050505081565b6004546001600160a01b031681565b3360009081526001602052604090205460ff166105d05760405162461bcd60e51b8152600401808060200182810382526024815260200180610d796024913960400191505060405180910390fd5b6001600160a01b0384166000908152600560205260409020546105f39084610b34565b6001600160a01b038516600081815260056020908152604091829020939093558051868152928301859052805191927fa9a40dec7a304e5915d11358b968c1e8d365992abf20f82285d1df1b30c8e24c929081900390910190a250505050565b61065b610b8e565b6001600160a01b031661066c61070e565b6001600160a01b0316146106b5576040805162461bcd60e51b81526020600482018190526024820152600080516020610d31833981519152604482015290519081900360640190fd5b600080546040516001600160a01b03909116907f8be0079c531659141344cd1fd0a4f28419497f9722a3daafe3b4186f6b6457e0908390a3600080546001600160a01b0319169055565b6002546001600160a01b031681565b6000546001600160a01b031690565b610725610b8e565b6001600160a01b031661073661070e565b6001600160a01b03161461077f576040805162461bcd60e51b81526020600482018190526024820152600080516020610d31833981519152604482015290519081900360640190fd5b600355565b60006104c060035483610b9290919063ffffffff16565b60035481565b3360009081526001602052604090205460ff166107ef5760405162461bcd60e51b8152600401808060200182810382526024815260200180610d796024913960400191505060405180910390fd5b6001600160a01b0382166000908152600560205260409020548111156108465760405162461bcd60e51b8152600401808060200182810382526028815260200180610d516028913960400191505060405180910390fd5b6001600160a01b0382166000908152600560205260409020546108699082610bf9565b6001600160a01b038316600081815260056020908152604091829020939093558051848152905191927fd3eec71143c45f28685b24760ea218d476917aa0ac0392a55e5304cef40bd2b692918290030190a25050565b6108c7610b8e565b6001600160a01b03166108d861070e565b6001600160a01b031614610921576040805162461bcd60e51b81526020600482018190526024820152600080516020610d31833981519152604482015290519081900360640190fd5b6000828152600660209081526040909120825161094092840190610c56565b505050565b61094d610b8e565b6001600160a01b031661095e61070e565b6001600160a01b0316146109a7576040805162461bcd60e51b81526020600482018190526024820152600080516020610d31833981519152604482015290519081900360640190fd5b6001600160a01b03919091166000908152600160205260409020805460ff1916911515919091179055565b6109da610b8e565b6001600160a01b03166109eb61070e565b6001600160a01b031614610a34576040805162461bcd60e51b81526020600482018190526024820152600080516020610d31833981519152604482015290519081900360640190fd5b6001600160a01b038116610a795760405162461bcd60e51b8152600401808060200182810382526026815260200180610cea6026913960400191505060405180910390fd5b600080546040516001600160a01b03808516939216917f8be0079c531659141344cd1fd0a4f28419497f9722a3daafe3b4186f6b6457e091a3600080546001600160a01b0319166001600160a01b0392909216919091179055565b600082610ae3575060006104c0565b82820282848281610af057fe5b0414610b2d5760405162461bcd60e51b8152600401808060200182810382526021815260200180610d106021913960400191505060405180910390fd5b9392505050565b600082820183811015610b2d576040805162461bcd60e51b815260206004820152601b60248201527f536166654d6174683a206164646974696f6e206f766572666c6f770000000000604482015290519081900360640190fd5b3390565b6000808211610be8576040805162461bcd60e51b815260206004820152601a60248201527f536166654d6174683a206469766973696f6e206279207a65726f000000000000604482015290519081900360640190fd5b818381610bf157fe5b049392505050565b600082821115610c50576040805162461bcd60e51b815260206004820152601e60248201527f536166654d6174683a207375627472616374696f6e206f766572666c6f770000604482015290519081900360640190fd5b50900390565b828054600181600116156101000203166002900490600052602060002090601f016020900481019282601f10610c9757805160ff1916838001178555610cc4565b82800160010185558215610cc4579182015b82811115610cc4578251825591602001919060010190610ca9565b50610cd0929150610cd4565b5090565b5b80821115610cd05760008155600101610cd556fe4f776e61626c653a206e6577206f776e657220697320746865207a65726f2061646472657373536166654d6174683a206d756c7469706c69636174696f6e206f766572666c6f774f776e61626c653a2063616c6c6572206973206e6f7420746865206f776e65725265736f757263653a206e6f7420656e6f756768207265736f757263657320746f207370656e642e5065726d697461626c653a2063616c6c6572206973206e6f74207065726d69747465642ea2646970667358221220a271e07cb466f3060b365c84e18db24da723dfba97c03eeb9e3965fa719b87a064736f6c634300070300334f776e61626c653a206e6577206f776e657220697320746865207a65726f20616464726573738be0079c531659141344cd1fd0a4f28419497f9722a3daafe3b4186f6b6457e0"
}