{
  "address": "0xe39FBB268Ba36dcb9d0A0Eaca2c21ab2f49f359C",
  "abi": [
    {
      "inputs": [
        {
          "internalType": "address",
          "name": "owner",
          "type": "address"
        },
        {
          "internalType": "contract IRootChannel",
          "name": "_channel",
          "type": "address"
        },
        {
          "internalType": "address",
          "name": "_valuationToken",
          "type": "address"
        },
        {
          "internalType": "address",
          "name": "_buyBackReceiver",
          "type": "address"
        },
        {
          "internalType": "contract IUniswapV2Router02",
          "name": "_routerV2",
          "type": "address"
        },
        {
          "internalType": "uint256",
          "name": "_price",
          "type": "uint256"
        }
      ],
      "stateMutability": "nonpayable",
      "type": "constructor"
    },
    {
      "anonymous": false,
      "inputs": [
        {
          "indexed": true,
          "internalType": "address",
          "name": "buyer",
          "type": "address"
        },
        {
          "indexed": false,
          "internalType": "uint256",
          "name": "amount",
          "type": "uint256"
        },
        {
          "indexed": false,
          "internalType": "uint256",
          "name": "value",
          "type": "uint256"
        }
      ],
      "name": "Bought",
      "type": "event"
    },
    {
      "anonymous": false,
      "inputs": [
        {
          "indexed": true,
          "internalType": "address",
          "name": "previousOwner",
          "type": "address"
        },
        {
          "indexed": true,
          "internalType": "address",
          "name": "newOwner",
          "type": "address"
        }
      ],
      "name": "OwnershipTransferred",
      "type": "event"
    },
    {
      "anonymous": false,
      "inputs": [
        {
          "indexed": true,
          "internalType": "address",
          "name": "buyer",
          "type": "address"
        },
        {
          "indexed": false,
          "internalType": "uint256",
          "name": "amount",
          "type": "uint256"
        }
      ],
      "name": "Spent",
      "type": "event"
    },
    {
      "inputs": [
        {
          "internalType": "address",
          "name": "",
          "type": "address"
        }
      ],
      "name": "balances",
      "outputs": [
        {
          "internalType": "uint256",
          "name": "total",
          "type": "uint256"
        },
        {
          "internalType": "uint256",
          "name": "left",
          "type": "uint256"
        }
      ],
      "stateMutability": "view",
      "type": "function"
    },
    {
      "inputs": [],
      "name": "beneficiary",
      "outputs": [
        {
          "internalType": "address",
          "name": "",
          "type": "address"
        }
      ],
      "stateMutability": "view",
      "type": "function"
    },
    {
      "inputs": [
        {
          "internalType": "address",
          "name": "buyer",
          "type": "address"
        },
        {
          "internalType": "uint256",
          "name": "amount",
          "type": "uint256"
        },
        {
          "internalType": "uint256",
          "name": "value",
          "type": "uint256"
        },
        {
          "internalType": "bytes",
          "name": "data",
          "type": "bytes"
        }
      ],
      "name": "buy",
      "outputs": [],
      "stateMutability": "nonpayable",
      "type": "function"
    },
    {
      "inputs": [
        {
          "internalType": "address[]",
          "name": "path",
          "type": "address[]"
        },
        {
          "internalType": "uint256",
          "name": "value",
          "type": "uint256"
        },
        {
          "internalType": "uint256",
          "name": "amountOutMin",
          "type": "uint256"
        },
        {
          "internalType": "uint256",
          "name": "deadline",
          "type": "uint256"
        }
      ],
      "name": "buyBack",
      "outputs": [],
      "stateMutability": "nonpayable",
      "type": "function"
    },
    {
      "inputs": [],
      "name": "buyBackReceiver",
      "outputs": [
        {
          "internalType": "address",
          "name": "",
          "type": "address"
        }
      ],
      "stateMutability": "view",
      "type": "function"
    },
    {
      "inputs": [],
      "name": "channel",
      "outputs": [
        {
          "internalType": "contract IRootChannel",
          "name": "",
          "type": "address"
        }
      ],
      "stateMutability": "view",
      "type": "function"
    },
    {
      "inputs": [],
      "name": "expiration",
      "outputs": [
        {
          "internalType": "uint256",
          "name": "",
          "type": "uint256"
        }
      ],
      "stateMutability": "view",
      "type": "function"
    },
    {
      "inputs": [
        {
          "internalType": "uint256",
          "name": "value",
          "type": "uint256"
        }
      ],
      "name": "getAmount",
      "outputs": [
        {
          "internalType": "uint256",
          "name": "",
          "type": "uint256"
        }
      ],
      "stateMutability": "view",
      "type": "function"
    },
    {
      "inputs": [
        {
          "internalType": "uint256",
          "name": "amount",
          "type": "uint256"
        }
      ],
      "name": "getValue",
      "outputs": [
        {
          "internalType": "uint256",
          "name": "",
          "type": "uint256"
        }
      ],
      "stateMutability": "view",
      "type": "function"
    },
    {
      "inputs": [],
      "name": "mintStorage",
      "outputs": [
        {
          "internalType": "bytes4",
          "name": "",
          "type": "bytes4"
        }
      ],
      "stateMutability": "view",
      "type": "function"
    },
    {
      "inputs": [],
      "name": "owner",
      "outputs": [
        {
          "internalType": "address",
          "name": "",
          "type": "address"
        }
      ],
      "stateMutability": "view",
      "type": "function"
    },
    {
      "inputs": [
        {
          "internalType": "address",
          "name": "permitter",
          "type": "address"
        },
        {
          "internalType": "bool",
          "name": "isPermit",
          "type": "bool"
        }
      ],
      "name": "permit",
      "outputs": [],
      "stateMutability": "nonpayable",
      "type": "function"
    },
    {
      "inputs": [
        {
          "internalType": "address",
          "name": "",
          "type": "address"
        }
      ],
      "name": "permits",
      "outputs": [
        {
          "internalType": "bool",
          "name": "",
          "type": "bool"
        }
      ],
      "stateMutability": "view",
      "type": "function"
    },
    {
      "inputs": [],
      "name": "price",
      "outputs": [
        {
          "internalType": "uint256",
          "name": "",
          "type": "uint256"
        }
      ],
      "stateMutability": "view",
      "type": "function"
    },
    {
      "inputs": [],
      "name": "renounceOwnership",
      "outputs": [],
      "stateMutability": "nonpayable",
      "type": "function"
    },
    {
      "inputs": [],
      "name": "routerV2",
      "outputs": [
        {
          "internalType": "contract IUniswapV2Router02",
          "name": "",
          "type": "address"
        }
      ],
      "stateMutability": "view",
      "type": "function"
    },
    {
      "inputs": [
        {
          "internalType": "uint256",
          "name": "_expiration",
          "type": "uint256"
        }
      ],
      "name": "setExpiration",
      "outputs": [],
      "stateMutability": "nonpayable",
      "type": "function"
    },
    {
      "inputs": [
        {
          "internalType": "uint256",
          "name": "_price",
          "type": "uint256"
        }
      ],
      "name": "setPrice",
      "outputs": [],
      "stateMutability": "nonpayable",
      "type": "function"
    },
    {
      "inputs": [
        {
          "internalType": "uint256",
          "name": "key",
          "type": "uint256"
        },
        {
          "internalType": "bytes",
          "name": "value",
          "type": "bytes"
        }
      ],
      "name": "setSlot",
      "outputs": [],
      "stateMutability": "nonpayable",
      "type": "function"
    },
    {
      "inputs": [
        {
          "internalType": "uint256",
          "name": "",
          "type": "uint256"
        }
      ],
      "name": "slots",
      "outputs": [
        {
          "internalType": "bytes",
          "name": "",
          "type": "bytes"
        }
      ],
      "stateMutability": "view",
      "type": "function"
    },
    {
      "inputs": [
        {
          "internalType": "address",
          "name": "buyer",
          "type": "address"
        },
        {
          "internalType": "uint256",
          "name": "amount",
          "type": "uint256"
        }
      ],
      "name": "spend",
      "outputs": [],
      "stateMutability": "nonpayable",
      "type": "function"
    },
    {
      "inputs": [
        {
          "internalType": "address",
          "name": "newReceiver",
          "type": "address"
        }
      ],
      "name": "transferBuyBackReceiver",
      "outputs": [],
      "stateMutability": "nonpayable",
      "type": "function"
    },
    {
      "inputs": [
        {
          "internalType": "address",
          "name": "newOwner",
          "type": "address"
        }
      ],
      "name": "transferOwnership",
      "outputs": [],
      "stateMutability": "nonpayable",
      "type": "function"
    },
    {
      "inputs": [
        {
          "internalType": "contract IRootChannel",
          "name": "_channel",
          "type": "address"
        }
      ],
      "name": "transferRootChannel",
      "outputs": [],
      "stateMutability": "nonpayable",
      "type": "function"
    },
    {
      "inputs": [],
      "name": "valuationToken",
      "outputs": [
        {
          "internalType": "address",
          "name": "",
          "type": "address"
        }
      ],
      "stateMutability": "view",
      "type": "function"
    }
  ],
  "transactionHash": "0xe123a481073af984fb28abf86b8f1f75411edbad6435db17c0c31d5a274fd2c5",
  "args": [
    "0xa995AE28b9cFf206C3971D1887cc934FC48e3a0F",
    "0x4Fa6BC6B5467F17f5552C2083FC5C8c93913d62E",
    "0xE437E9a5fd870aF20a779A5fBA83bc53cC7C837A",
    "0x4023C5cE4f334971E031B6536E610500b3FcaDb5",
    "0x7a250d5630B4cF539739dF2C5dAcb4c659F2488D",
    "1000000000000000000"
  ],
  "bytecode": "0x6080604052600a805463ffffffff191662aa7b571790553480156200002357600080fd5b5060405162001cc438038062001cc4833981810160405260c08110156200004957600080fd5b508051602082015160408301516060840151608085015160a09095015193949293919290918460006200007b62000142565b600080546001600160a01b0319166001600160a01b03831690811782556040519293509160008051602062001ca4833981519152908290a350600280546001600160a01b0319166001600160a01b0392909216919091179055620000df8662000146565b600380546001600160a01b039586166001600160a01b031991821617909155600780549486169482169490941790935560068054929094169183169190911790925560059190915562093a80600b556004805490911630179055506200025f9050565b3390565b6200015062000142565b6001600160a01b03166200016362000250565b6001600160a01b031614620001bf576040805162461bcd60e51b815260206004820181905260248201527f4f776e61626c653a2063616c6c6572206973206e6f7420746865206f776e6572604482015290519081900360640190fd5b6001600160a01b038116620002065760405162461bcd60e51b815260040180806020018281038252602681526020018062001c7e6026913960400191505060405180910390fd5b600080546040516001600160a01b038085169392169160008051602062001ca483398151915291a3600080546001600160a01b0319166001600160a01b0392909216919091179055565b6000546001600160a01b031690565b611a0f806200026f6000396000f3fe608060405234801561001057600080fd5b50600436106101725760003560e01c806377e6bfa6116100de578063a035b1fe11610097578063ca48666e11610071578063ca48666e14610550578063d6fa8abc146105fc578063f186c67f14610622578063f2fde38b1461065057610172565b8063a035b1fe14610471578063af7d6ca314610479578063b004a46e146104a557610172565b806377e6bfa6146103fa5780637bbdb96e146104025780638b3256721461040a5780638da5cb5b1461042f57806391b7f5ed146104375780639980ec861461045457610172565b80634665096d116101305780634665096d146102dd578063502f7446146102e5578063515a20ba146102ed5780636c0255721461030c578063715018a6146103cc57806374d1f2f2146103d457610172565b80628009a3146101775780630ff4c916146101b157806327e235e3146101e0578063387dd9e91461021f57806338af3eed146102b15780633dd21f8a146102d5575b600080fd5b61019d6004803603602081101561018d57600080fd5b50356001600160a01b0316610676565b604080519115158252519081900360200190f35b6101ce600480360360208110156101c757600080fd5b503561068b565b60408051918252519081900360200190f35b610206600480360360208110156101f657600080fd5b50356001600160a01b03166106a8565b6040805192835260208301919091528051918290030190f35b61023c6004803603602081101561023557600080fd5b50356106c1565b6040805160208082528351818301528351919283929083019185019080838360005b8381101561027657818101518382015260200161025e565b50505050905090810190601f1680156102a35780820380516001836020036101000a031916815260200191505b509250505060405180910390f35b6102b961075c565b604080516001600160a01b039092168252519081900360200190f35b6102b961076b565b6101ce61077a565b6102b9610780565b61030a6004803603602081101561030357600080fd5b503561078f565b005b61030a6004803603608081101561032257600080fd5b6001600160a01b038235169160208101359160408201359190810190608081016060820135600160201b81111561035857600080fd5b82018360208201111561036a57600080fd5b803590602001918460018302840111600160201b8311171561038b57600080fd5b91908080601f0160208091040260200160405190810160405280939291908181526020018383808284376000920191909152509295506107f6945050505050565b61030a61097d565b61030a600480360360208110156103ea57600080fd5b50356001600160a01b0316610a29565b6102b9610aad565b6102b9610abc565b610412610acb565b604080516001600160e01b03199092168252519081900360200190f35b6102b9610ad4565b61030a6004803603602081101561044d57600080fd5b5035610ae3565b6101ce6004803603602081101561046a57600080fd5b5035610b4a565b6101ce610b61565b61030a6004803603604081101561048f57600080fd5b506001600160a01b038135169060200135610b67565b61030a600480360360408110156104bb57600080fd5b81359190810190604081016020820135600160201b8111156104dc57600080fd5b8201836020820111156104ee57600080fd5b803590602001918460018302840111600160201b8311171561050f57600080fd5b91908080601f016020809104026020016040519081016040528093929190818152602001838380828437600092019190915250929550610c89945050505050565b61030a6004803603608081101561056657600080fd5b810190602081018135600160201b81111561058057600080fd5b82018360208201111561059257600080fd5b803590602001918460208302840111600160201b831117156105b357600080fd5b9190808060200260200160405190810160405280939291908181526020018383602002808284376000920191909152509295505082359350505060208101359060400135610d0f565b61030a6004803603602081101561061257600080fd5b50356001600160a01b0316610f77565b61030a6004803603604081101561063857600080fd5b506001600160a01b0381351690602001351515610ffb565b61030a6004803603602081101561066657600080fd5b50356001600160a01b0316611088565b60016020526000908152604090205460ff1681565b60006106a26005548361118a90919063ffffffff16565b92915050565b6008602052600090815260409020805460019091015482565b60096020908152600091825260409182902080548351601f6002600019610100600186161502019093169290920491820184900484028101840190945280845290918301828280156107545780601f1061072957610100808354040283529160200191610754565b820191906000526020600020905b81548152906001019060200180831161073757829003601f168201915b505050505081565b6004546001600160a01b031681565b6007546001600160a01b031681565b600b5481565b6006546001600160a01b031681565b6107976111ea565b6001600160a01b03166107a8610ad4565b6001600160a01b0316146107f1576040805162461bcd60e51b815260206004820181905260248201526000805160206118d2833981519152604482015290519081900360640190fd5b600b55565b3360009081526001602052604090205460ff166108445760405162461bcd60e51b81526004018080602001828103825260248152602001806119806024913960400191505060405180910390fd5b600081806020019051602081101561085b57600080fd5b50516001600160a01b03861660009081526008602052604090205490915061088390856111ee565b6001600160a01b0386166000908152600860205260409020908155600101546108ac90856111ee565b6001600160a01b03861660008181526008602090815260409182902060010193909355600a54815130602482015260448101939093526064830188905260848084018690528251808503909101815260a4909301909152918101805160e09390931b6001600160e01b0319166001600160e01b039093169290921790915261093390611248565b604080518581526020810185905281516001600160a01b038816927fa9a40dec7a304e5915d11358b968c1e8d365992abf20f82285d1df1b30c8e24c928290030190a25050505050565b6109856111ea565b6001600160a01b0316610996610ad4565b6001600160a01b0316146109df576040805162461bcd60e51b815260206004820181905260248201526000805160206118d2833981519152604482015290519081900360640190fd5b600080546040516001600160a01b03909116907f8be0079c531659141344cd1fd0a4f28419497f9722a3daafe3b4186f6b6457e0908390a3600080546001600160a01b0319169055565b610a316111ea565b6001600160a01b0316610a42610ad4565b6001600160a01b031614610a8b576040805162461bcd60e51b815260206004820181905260248201526000805160206118d2833981519152604482015290519081900360640190fd5b600780546001600160a01b0319166001600160a01b0392909216919091179055565b6003546001600160a01b031681565b6002546001600160a01b031681565b600a5460e01b81565b6000546001600160a01b031690565b610aeb6111ea565b6001600160a01b0316610afc610ad4565b6001600160a01b031614610b45576040805162461bcd60e51b815260206004820181905260248201526000805160206118d2833981519152604482015290519081900360640190fd5b600555565b60006106a26005548361130f90919063ffffffff16565b60055481565b6002546001600160a01b03163314610bb05760405162461bcd60e51b81526004018080602001828103825260338152602001806119236033913960400191505060405180910390fd5b6001600160a01b038216600090815260086020526040902060010154811115610c0a5760405162461bcd60e51b81526004018080602001828103825260318152602001806118f26031913960400191505060405180910390fd5b6001600160a01b038216600090815260086020526040902060010154610c309082611376565b6001600160a01b038316600081815260086020908152604091829020600101939093558051848152905191927fd3eec71143c45f28685b24760ea218d476917aa0ac0392a55e5304cef40bd2b692918290030190a25050565b610c916111ea565b6001600160a01b0316610ca2610ad4565b6001600160a01b031614610ceb576040805162461bcd60e51b815260206004820181905260248201526000805160206118d2833981519152604482015290519081900360640190fd5b60008281526009602090815260409091208251610d0a928401906117af565b505050565b610d176111ea565b6001600160a01b0316610d28610ad4565b6001600160a01b031614610d71576040805162461bcd60e51b815260206004820181905260248201526000805160206118d2833981519152604482015290519081900360640190fd5b6001845111610db15760405162461bcd60e51b815260040180806020018281038252602281526020018061188f6022913960400191505060405180910390fd5b6006548451610df1916001600160a01b03169085908790600090610dd157fe5b60200260200101516001600160a01b03166113d39092919063ffffffff16565b6006546007546040516338ed173960e01b815260048101868152602482018690526001600160a01b03928316606483018190526084830186905260a060448401908152895160a4850152895194909516946338ed173994899489948c94938a939192909160c4909101906020808801910280838360005b83811015610e80578181015183820152602001610e68565b505050509050019650505050505050600060405180830381600087803b158015610ea957600080fd5b505af1158015610ebd573d6000803e3d6000fd5b505050506040513d6000823e601f3d908101601f191682016040526020811015610ee657600080fd5b8101908080516040519392919084600160201b821115610f0557600080fd5b908301906020820185811115610f1a57600080fd5b82518660208202830111600160201b82111715610f3657600080fd5b82525081516020918201928201910280838360005b83811015610f63578181015183820152602001610f4b565b505050509050016040525050505050505050565b610f7f6111ea565b6001600160a01b0316610f90610ad4565b6001600160a01b031614610fd9576040805162461bcd60e51b815260206004820181905260248201526000805160206118d2833981519152604482015290519081900360640190fd5b600280546001600160a01b0319166001600160a01b0392909216919091179055565b6110036111ea565b6001600160a01b0316611014610ad4565b6001600160a01b03161461105d576040805162461bcd60e51b815260206004820181905260248201526000805160206118d2833981519152604482015290519081900360640190fd5b6001600160a01b03919091166000908152600160205260409020805460ff1916911515919091179055565b6110906111ea565b6001600160a01b03166110a1610ad4565b6001600160a01b0316146110ea576040805162461bcd60e51b815260206004820181905260248201526000805160206118d2833981519152604482015290519081900360640190fd5b6001600160a01b03811661112f5760405162461bcd60e51b81526004018080602001828103825260268152602001806118436026913960400191505060405180910390fd5b600080546040516001600160a01b03808516939216917f8be0079c531659141344cd1fd0a4f28419497f9722a3daafe3b4186f6b6457e091a3600080546001600160a01b0319166001600160a01b0392909216919091179055565b600082611199575060006106a2565b828202828482816111a657fe5b04146111e35760405162461bcd60e51b81526004018080602001828103825260218152602001806118b16021913960400191505060405180910390fd5b9392505050565b3390565b6000828201838110156111e3576040805162461bcd60e51b815260206004820152601b60248201527f536166654d6174683a206164646974696f6e206f766572666c6f770000000000604482015290519081900360640190fd5b6002546040516309813cdd60e31b81526020600482018181528451602484015284516001600160a01b0390941693634c09e6e893869383926044909201919085019080838360005b838110156112a8578181015183820152602001611290565b50505050905090810190601f1680156112d55780820380516001836020036101000a031916815260200191505b5092505050600060405180830381600087803b1580156112f457600080fd5b505af1158015611308573d6000803e3d6000fd5b5050505050565b6000808211611365576040805162461bcd60e51b815260206004820152601a60248201527f536166654d6174683a206469766973696f6e206279207a65726f000000000000604482015290519081900360640190fd5b81838161136e57fe5b049392505050565b6000828211156113cd576040805162461bcd60e51b815260206004820152601e60248201527f536166654d6174683a207375627472616374696f6e206f766572666c6f770000604482015290519081900360640190fd5b50900390565b801580611459575060408051636eb1769f60e11b81523060048201526001600160a01b03848116602483015291519185169163dd62ed3e91604480820192602092909190829003018186803b15801561142b57600080fd5b505afa15801561143f573d6000803e3d6000fd5b505050506040513d602081101561145557600080fd5b5051155b6114945760405162461bcd60e51b81526004018080602001828103825260368152602001806119a46036913960400191505060405180910390fd5b604080516001600160a01b038416602482015260448082018490528251808303909101815260649091019091526020810180516001600160e01b031663095ea7b360e01b179052610d0a9084906060611536826040518060400160405280602081526020017f5361666545524332303a206c6f772d6c6576656c2063616c6c206661696c6564815250856001600160a01b03166115929092919063ffffffff16565b805190915015610d0a5780806020019051602081101561155557600080fd5b5051610d0a5760405162461bcd60e51b815260040180806020018281038252602a815260200180611956602a913960400191505060405180910390fd5b60606115a184846000856115a9565b949350505050565b6060824710156115ea5760405162461bcd60e51b81526004018080602001828103825260268152602001806118696026913960400191505060405180910390fd5b6115f385611705565b611644576040805162461bcd60e51b815260206004820152601d60248201527f416464726573733a2063616c6c20746f206e6f6e2d636f6e7472616374000000604482015290519081900360640190fd5b60006060866001600160a01b031685876040518082805190602001908083835b602083106116835780518252601f199092019160209182019101611664565b6001836020036101000a03801982511681845116808217855250505050505090500191505060006040518083038185875af1925050503d80600081146116e5576040519150601f19603f3d011682016040523d82523d6000602084013e6116ea565b606091505b50915091506116fa82828661170b565b979650505050505050565b3b151590565b6060831561171a5750816111e3565b82511561172a5782518084602001fd5b8160405162461bcd60e51b81526004018080602001828103825283818151815260200191508051906020019080838360005b8381101561177457818101518382015260200161175c565b50505050905090810190601f1680156117a15780820380516001836020036101000a031916815260200191505b509250505060405180910390fd5b828054600181600116156101000203166002900490600052602060002090601f016020900481019282601f106117f057805160ff191683800117855561181d565b8280016001018555821561181d579182015b8281111561181d578251825591602001919060010190611802565b5061182992915061182d565b5090565b5b80821115611829576000815560010161182e56fe4f776e61626c653a206e6577206f776e657220697320746865207a65726f2061646472657373416464726573733a20696e73756666696369656e742062616c616e636520666f722063616c6c53746f7261676557697468446561646c696e653a207061746820696e76616c69642e536166654d6174683a206d756c7469706c69636174696f6e206f766572666c6f774f776e61626c653a2063616c6c6572206973206e6f7420746865206f776e657253746f7261676557697468446561646c696e653a206e6f7420656e6f7567682073746f7261676520746f207370656e642e5265736f75726365576974684368616e6e656c3a2043616e2062652063616c6c6564206279206368616e6e656c206f6e6c792e5361666545524332303a204552433230206f7065726174696f6e20646964206e6f7420737563636565645065726d697461626c653a2063616c6c6572206973206e6f74207065726d69747465642e5361666545524332303a20617070726f76652066726f6d206e6f6e2d7a65726f20746f206e6f6e2d7a65726f20616c6c6f77616e6365a264697066735822122045c155378e74d64c13a827d897d8095fcbdea531b6f87bbe6686a9643ba3923f64736f6c634300070300334f776e61626c653a206e6577206f776e657220697320746865207a65726f20616464726573738be0079c531659141344cd1fd0a4f28419497f9722a3daafe3b4186f6b6457e0"
}